{
  "_format": "hh-sol-artifact-1",
  "contractName": "Exchange",
  "sourceName": "contracts/Exchange.sol",
  "abi": [
    {
      "inputs": [
        {
          "internalType": "address",
          "name": "_token",
          "type": "address"
        }
      ],
      "stateMutability": "nonpayable",
      "type": "constructor"
    },
    {
      "anonymous": false,
      "inputs": [
        {
          "indexed": true,
          "internalType": "address",
          "name": "owner",
          "type": "address"
        },
        {
          "indexed": true,
          "internalType": "address",
          "name": "spender",
          "type": "address"
        },
        {
          "indexed": false,
          "internalType": "uint256",
          "name": "value",
          "type": "uint256"
        }
      ],
      "name": "Approval",
      "type": "event"
    },
    {
      "anonymous": false,
      "inputs": [
        {
          "indexed": true,
          "internalType": "address",
          "name": "from",
          "type": "address"
        },
        {
          "indexed": true,
          "internalType": "address",
          "name": "to",
          "type": "address"
        },
        {
          "indexed": false,
          "internalType": "uint256",
          "name": "value",
          "type": "uint256"
        }
      ],
      "name": "Transfer",
      "type": "event"
    },
    {
      "inputs": [
        {
          "internalType": "uint256",
          "name": "_tokenAmount",
          "type": "uint256"
        }
      ],
      "name": "addLiquidity",
      "outputs": [
        {
          "internalType": "uint256",
          "name": "",
          "type": "uint256"
        }
      ],
      "stateMutability": "payable",
      "type": "function"
    },
    {
      "inputs": [
        {
          "internalType": "address",
          "name": "owner",
          "type": "address"
        },
        {
          "internalType": "address",
          "name": "spender",
          "type": "address"
        }
      ],
      "name": "allowance",
      "outputs": [
        {
          "internalType": "uint256",
          "name": "",
          "type": "uint256"
        }
      ],
      "stateMutability": "view",
      "type": "function"
    },
    {
      "inputs": [
        {
          "internalType": "address",
          "name": "spender",
          "type": "address"
        },
        {
          "internalType": "uint256",
          "name": "amount",
          "type": "uint256"
        }
      ],
      "name": "approve",
      "outputs": [
        {
          "internalType": "bool",
          "name": "",
          "type": "bool"
        }
      ],
      "stateMutability": "nonpayable",
      "type": "function"
    },
    {
      "inputs": [
        {
          "internalType": "address",
          "name": "account",
          "type": "address"
        }
      ],
      "name": "balanceOf",
      "outputs": [
        {
          "internalType": "uint256",
          "name": "",
          "type": "uint256"
        }
      ],
      "stateMutability": "view",
      "type": "function"
    },
    {
      "inputs": [],
      "name": "decimals",
      "outputs": [
        {
          "internalType": "uint8",
          "name": "",
          "type": "uint8"
        }
      ],
      "stateMutability": "view",
      "type": "function"
    },
    {
      "inputs": [
        {
          "internalType": "address",
          "name": "spender",
          "type": "address"
        },
        {
          "internalType": "uint256",
          "name": "subtractedValue",
          "type": "uint256"
        }
      ],
      "name": "decreaseAllowance",
      "outputs": [
        {
          "internalType": "bool",
          "name": "",
          "type": "bool"
        }
      ],
      "stateMutability": "nonpayable",
      "type": "function"
    },
    {
      "inputs": [],
      "name": "factoryAddress",
      "outputs": [
        {
          "internalType": "address",
          "name": "",
          "type": "address"
        }
      ],
      "stateMutability": "view",
      "type": "function"
    },
    {
      "inputs": [],
      "name": "getReserve",
      "outputs": [
        {
          "internalType": "uint256",
          "name": "",
          "type": "uint256"
        }
      ],
      "stateMutability": "view",
      "type": "function"
    },
    {
      "inputs": [
        {
          "internalType": "uint256",
          "name": "_weiAmount",
          "type": "uint256"
        }
      ],
      "name": "getTokenAmount",
      "outputs": [
        {
          "internalType": "uint256",
          "name": "",
          "type": "uint256"
        }
      ],
      "stateMutability": "view",
      "type": "function"
    },
    {
      "inputs": [
        {
          "internalType": "uint256",
          "name": "_tokenAmount",
          "type": "uint256"
        }
      ],
      "name": "getWeiAmount",
      "outputs": [
        {
          "internalType": "uint256",
          "name": "",
          "type": "uint256"
        }
      ],
      "stateMutability": "view",
      "type": "function"
    },
    {
      "inputs": [
        {
          "internalType": "address",
          "name": "spender",
          "type": "address"
        },
        {
          "internalType": "uint256",
          "name": "addedValue",
          "type": "uint256"
        }
      ],
      "name": "increaseAllowance",
      "outputs": [
        {
          "internalType": "bool",
          "name": "",
          "type": "bool"
        }
      ],
      "stateMutability": "nonpayable",
      "type": "function"
    },
    {
      "inputs": [],
      "name": "name",
      "outputs": [
        {
          "internalType": "string",
          "name": "",
          "type": "string"
        }
      ],
      "stateMutability": "view",
      "type": "function"
    },
    {
      "inputs": [
        {
          "internalType": "uint256",
          "name": "_amount",
          "type": "uint256"
        }
      ],
      "name": "removeLiquidity",
      "outputs": [
        {
          "internalType": "uint256",
          "name": "",
          "type": "uint256"
        },
        {
          "internalType": "uint256",
          "name": "",
          "type": "uint256"
        }
      ],
      "stateMutability": "nonpayable",
      "type": "function"
    },
    {
      "inputs": [],
      "name": "symbol",
      "outputs": [
        {
          "internalType": "string",
          "name": "",
          "type": "string"
        }
      ],
      "stateMutability": "view",
      "type": "function"
    },
    {
      "inputs": [],
      "name": "tokenAddress",
      "outputs": [
        {
          "internalType": "address",
          "name": "",
          "type": "address"
        }
      ],
      "stateMutability": "view",
      "type": "function"
    },
    {
      "inputs": [
        {
          "internalType": "uint256",
          "name": "_tokensSold",
          "type": "uint256"
        },
        {
          "internalType": "uint256",
          "name": "_tokensBought",
          "type": "uint256"
        },
        {
          "internalType": "address",
          "name": "_tokenAddress",
          "type": "address"
        }
      ],
      "name": "tokenToTokenSwap",
      "outputs": [],
      "stateMutability": "nonpayable",
      "type": "function"
    },
    {
      "inputs": [
        {
          "internalType": "uint256",
          "name": "_tokensAmount",
          "type": "uint256"
        },
        {
          "internalType": "uint256",
          "name": "_weiRequested",
          "type": "uint256"
        }
      ],
      "name": "tokenToWeiSwap",
      "outputs": [],
      "stateMutability": "payable",
      "type": "function"
    },
    {
      "inputs": [],
      "name": "totalSupply",
      "outputs": [
        {
          "internalType": "uint256",
          "name": "",
          "type": "uint256"
        }
      ],
      "stateMutability": "view",
      "type": "function"
    },
    {
      "inputs": [
        {
          "internalType": "address",
          "name": "to",
          "type": "address"
        },
        {
          "internalType": "uint256",
          "name": "amount",
          "type": "uint256"
        }
      ],
      "name": "transfer",
      "outputs": [
        {
          "internalType": "bool",
          "name": "",
          "type": "bool"
        }
      ],
      "stateMutability": "nonpayable",
      "type": "function"
    },
    {
      "inputs": [
        {
          "internalType": "address",
          "name": "from",
          "type": "address"
        },
        {
          "internalType": "address",
          "name": "to",
          "type": "address"
        },
        {
          "internalType": "uint256",
          "name": "amount",
          "type": "uint256"
        }
      ],
      "name": "transferFrom",
      "outputs": [
        {
          "internalType": "bool",
          "name": "",
          "type": "bool"
        }
      ],
      "stateMutability": "nonpayable",
      "type": "function"
    },
    {
      "inputs": [
        {
          "internalType": "uint256",
          "name": "_tokensRequested",
          "type": "uint256"
        }
      ],
      "name": "weiToTokenSwap",
      "outputs": [],
      "stateMutability": "payable",
      "type": "function"
    },
    {
      "inputs": [
        {
          "internalType": "uint256",
          "name": "_tokensRequested",
          "type": "uint256"
        },
        {
          "internalType": "address",
          "name": "_recipient",
          "type": "address"
        }
      ],
      "name": "weiToTokenTransfer",
      "outputs": [],
      "stateMutability": "payable",
      "type": "function"
    }
  ],
  "bytecode": "0x60806040523480156200001157600080fd5b5060405162002d2538038062002d2583398181016040528101906200003791906200029a565b6040518060400160405280600781526020017f556e6973776170000000000000000000000000000000000000000000000000008152506040518060400160405280600381526020017f554e4900000000000000000000000000000000000000000000000000000000008152508160039080519060200190620000bb929190620001d3565b508060049080519060200190620000d4929190620001d3565b505050600073ffffffffffffffffffffffffffffffffffffffff168173ffffffffffffffffffffffffffffffffffffffff1614156200014a576040517f08c379a00000000000000000000000000000000000000000000000000000000081526004016200014190620002ed565b60405180910390fd5b80600560006101000a81548173ffffffffffffffffffffffffffffffffffffffff021916908373ffffffffffffffffffffffffffffffffffffffff16021790555033600660006101000a81548173ffffffffffffffffffffffffffffffffffffffff021916908373ffffffffffffffffffffffffffffffffffffffff16021790555050620003fc565b828054620001e19062000354565b90600052602060002090601f01602090048101928262000205576000855562000251565b82601f106200022057805160ff191683800117855562000251565b8280016001018555821562000251579182015b828111156200025057825182559160200191906001019062000233565b5b50905062000260919062000264565b5090565b5b808211156200027f57600081600090555060010162000265565b5090565b6000815190506200029481620003e2565b92915050565b600060208284031215620002ad57600080fd5b6000620002bd8482850162000283565b91505092915050565b6000620002d56002836200030f565b9150620002e282620003b9565b602082019050919050565b600060208201905081810360008301526200030881620002c6565b9050919050565b600082825260208201905092915050565b60006200032d8262000334565b9050919050565b600073ffffffffffffffffffffffffffffffffffffffff82169050919050565b600060028204905060018216806200036d57607f821691505b602082108114156200038457620003836200038a565b5b50919050565b7f4e487b7100000000000000000000000000000000000000000000000000000000600052602260045260246000fd5b7f4531000000000000000000000000000000000000000000000000000000000000600082015250565b620003ed8162000320565b8114620003f957600080fd5b50565b612919806200040c6000396000f3fe6080604052600436106101355760003560e01c806387276826116100ab578063a457c2d71161006f578063a457c2d71461043e578063a9059cbb1461047b578063c2507ac1146104b8578063dd62ed3e146104f5578063f7a7e32414610532578063fede4ba41461055b57610135565b8063872768261461036357806395d89b411461037f578063966dae0e146103aa5780639c8f9f23146103d55780639d76ea581461041357610135565b8063313ce567116100fd578063313ce56714610226578063395093511461025157806351c6590a1461028e57806359bf5d39146102be57806370a08231146102e957806382d5d7ac1461032657610135565b806306fdde031461013a578063095ea7b31461016557806318160ddd146101a2578063237e22d0146101cd57806323b872dd146101e9575b600080fd5b34801561014657600080fd5b5061014f610577565b60405161015c91906120cf565b60405180910390f35b34801561017157600080fd5b5061018c60048036038101906101879190611ca2565b610609565b60405161019991906120b4565b60405180910390f35b3480156101ae57600080fd5b506101b761062c565b6040516101c49190612271565b60405180910390f35b6101e760048036038101906101e29190611d59565b610636565b005b3480156101f557600080fd5b50610210600480360381019061020b9190611c53565b610644565b60405161021d91906120b4565b60405180910390f35b34801561023257600080fd5b5061023b610673565b60405161024891906122de565b60405180910390f35b34801561025d57600080fd5b5061027860048036038101906102739190611ca2565b61067c565b60405161028591906120b4565b60405180910390f35b6102a860048036038101906102a39190611d07565b6106b3565b6040516102b59190612271565b60405180910390f35b3480156102ca57600080fd5b506102d361083b565b6040516102e09190612271565b60405180910390f35b3480156102f557600080fd5b50610310600480360381019061030b9190611bc5565b6108ed565b60405161031d9190612271565b60405180910390f35b34801561033257600080fd5b5061034d60048036038101906103489190611d07565b610935565b60405161035a9190612271565b60405180910390f35b61037d60048036038101906103789190611d95565b610992565b005b34801561038b57600080fd5b50610394610ae9565b6040516103a191906120cf565b60405180910390f35b3480156103b657600080fd5b506103bf610b7b565b6040516103cc9190612039565b60405180910390f35b3480156103e157600080fd5b506103fc60048036038101906103f79190611d07565b610ba1565b60405161040a9291906122b5565b60405180910390f35b34801561041f57600080fd5b50610428610d40565b6040516104359190612039565b60405180910390f35b34801561044a57600080fd5b5061046560048036038101906104609190611ca2565b610d66565b60405161047291906120b4565b60405180910390f35b34801561048757600080fd5b506104a2600480360381019061049d9190611ca2565b610ddd565b6040516104af91906120b4565b60405180910390f35b3480156104c457600080fd5b506104df60048036038101906104da9190611d07565b610e00565b6040516104ec9190612271565b60405180910390f35b34801561050157600080fd5b5061051c60048036038101906105179190611c17565b610e5d565b6040516105299190612271565b60405180910390f35b34801561053e57600080fd5b5061055960048036038101906105549190611dd1565b610ee4565b005b61057560048036038101906105709190611d07565b61117a565b005b606060038054610586906124b2565b80601f01602080910402602001604051908101604052809291908181526020018280546105b2906124b2565b80156105ff5780601f106105d4576101008083540402835291602001916105ff565b820191906000526020600020905b8154815290600101906020018083116105e257829003601f168201915b5050505050905090565b600080610614611187565b905061062181858561118f565b600191505092915050565b6000600254905090565b610640828261135a565b5050565b60008061064f611187565b905061065c858285611473565b6106678585856114ff565b60019150509392505050565b60006012905090565b600080610687611187565b90506106a88185856106998589610e5d565b6106a39190612315565b61118f565b600191505092915050565b6000806000905060006106c461083b565b14156106d257479050610770565b600034476106e091906123f6565b905060006106ec61083b565b905060008282346106fd919061239c565b610707919061236b565b90508086101561074c576040517f08c379a000000000000000000000000000000000000000000000000000000000815260040161074390612111565b60405180910390fd5b823461075661062c565b610760919061239c565b61076a919061236b565b93505050505b6000600560009054906101000a900473ffffffffffffffffffffffffffffffffffffffff1690508073ffffffffffffffffffffffffffffffffffffffff166323b872dd3330876040518463ffffffff1660e01b81526004016107d493929190612054565b602060405180830381600087803b1580156107ee57600080fd5b505af1158015610802573d6000803e3d6000fd5b505050506040513d601f19601f820116820180604052508101906108269190611cde565b506108313383611780565b8192505050919050565b6000600560009054906101000a900473ffffffffffffffffffffffffffffffffffffffff1673ffffffffffffffffffffffffffffffffffffffff166370a08231306040518263ffffffff1660e01b81526004016108989190612039565b60206040518083038186803b1580156108b057600080fd5b505afa1580156108c4573d6000803e3d6000fd5b505050506040513d601f19601f820116820180604052508101906108e89190611d30565b905090565b60008060008373ffffffffffffffffffffffffffffffffffffffff1673ffffffffffffffffffffffffffffffffffffffff168152602001908152602001600020549050919050565b6000808211610979576040517f08c379a000000000000000000000000000000000000000000000000000000000815260040161097090612111565b60405180910390fd5b61098b8261098561083b565b476118e0565b9050919050565b60006109a6836109a061083b565b476118e0565b9050818110156109eb576040517f08c379a00000000000000000000000000000000000000000000000000000000081526004016109e290612111565b60405180910390fd5b600560009054906101000a900473ffffffffffffffffffffffffffffffffffffffff1673ffffffffffffffffffffffffffffffffffffffff166323b872dd3330866040518463ffffffff1660e01b8152600401610a4a93929190612054565b602060405180830381600087803b158015610a6457600080fd5b505af1158015610a78573d6000803e3d6000fd5b505050506040513d601f19601f82011682018060405250810190610a9c9190611cde565b503373ffffffffffffffffffffffffffffffffffffffff166108fc829081150290604051600060405180830381858888f19350505050158015610ae3573d6000803e3d6000fd5b50505050565b606060048054610af8906124b2565b80601f0160208091040260200160405190810160405280929190818152602001828054610b24906124b2565b8015610b715780601f10610b4657610100808354040283529160200191610b71565b820191906000526020600020905b815481529060010190602001808311610b5457829003601f168201915b5050505050905090565b600660009054906101000a900473ffffffffffffffffffffffffffffffffffffffff1681565b60008060008311610be7576040517f08c379a0000000000000000000000000000000000000000000000000000000008152600401610bde90612111565b60405180910390fd5b6000610bf161062c565b8447610bfd919061239c565b610c07919061236b565b90506000610c1361062c565b85610c1c61083b565b610c26919061239c565b610c30919061236b565b9050610c3c338661197b565b3373ffffffffffffffffffffffffffffffffffffffff166108fc839081150290604051600060405180830381858888f19350505050158015610c82573d6000803e3d6000fd5b50600560009054906101000a900473ffffffffffffffffffffffffffffffffffffffff1673ffffffffffffffffffffffffffffffffffffffff1663a9059cbb33836040518363ffffffff1660e01b8152600401610ce092919061208b565b602060405180830381600087803b158015610cfa57600080fd5b505af1158015610d0e573d6000803e3d6000fd5b505050506040513d601f19601f82011682018060405250810190610d329190611cde565b508181935093505050915091565b600560009054906101000a900473ffffffffffffffffffffffffffffffffffffffff1681565b600080610d71611187565b90506000610d7f8286610e5d565b905083811015610dc4576040517f08c379a0000000000000000000000000000000000000000000000000000000008152600401610dbb90612231565b60405180910390fd5b610dd1828686840361118f565b60019250505092915050565b600080610de8611187565b9050610df58185856114ff565b600191505092915050565b6000808211610e44576040517f08c379a0000000000000000000000000000000000000000000000000000000008152600401610e3b90612111565b60405180910390fd5b610e568247610e5161083b565b6118e0565b9050919050565b6000600160008473ffffffffffffffffffffffffffffffffffffffff1673ffffffffffffffffffffffffffffffffffffffff16815260200190815260200160002060008373ffffffffffffffffffffffffffffffffffffffff1673ffffffffffffffffffffffffffffffffffffffff16815260200190815260200160002054905092915050565b6000600660009054906101000a900473ffffffffffffffffffffffffffffffffffffffff1673ffffffffffffffffffffffffffffffffffffffff166306f2bf62836040518263ffffffff1660e01b8152600401610f419190612039565b602060405180830381600087803b158015610f5b57600080fd5b505af1158015610f6f573d6000803e3d6000fd5b505050506040513d601f19601f82011682018060405250810190610f939190611bee565b90503073ffffffffffffffffffffffffffffffffffffffff168173ffffffffffffffffffffffffffffffffffffffff1614158015610ffe5750600073ffffffffffffffffffffffffffffffffffffffff168173ffffffffffffffffffffffffffffffffffffffff1614155b61103d576040517f08c379a0000000000000000000000000000000000000000000000000000000008152600401611034906121b1565b60405180910390fd5b60006110518561104b61083b565b476118e0565b9050600560009054906101000a900473ffffffffffffffffffffffffffffffffffffffff1673ffffffffffffffffffffffffffffffffffffffff166323b872dd3330886040518463ffffffff1660e01b81526004016110b293929190612054565b602060405180830381600087803b1580156110cc57600080fd5b505af11580156110e0573d6000803e3d6000fd5b505050506040513d601f19601f820116820180604052508101906111049190611cde565b508173ffffffffffffffffffffffffffffffffffffffff1663237e22d08286336040518463ffffffff1660e01b815260040161114192919061228c565b6000604051808303818588803b15801561115a57600080fd5b505af115801561116e573d6000803e3d6000fd5b50505050505050505050565b611184813361135a565b50565b600033905090565b600073ffffffffffffffffffffffffffffffffffffffff168373ffffffffffffffffffffffffffffffffffffffff1614156111ff576040517f08c379a00000000000000000000000000000000000000000000000000000000081526004016111f690612211565b60405180910390fd5b600073ffffffffffffffffffffffffffffffffffffffff168273ffffffffffffffffffffffffffffffffffffffff16141561126f576040517f08c379a000000000000000000000000000000000000000000000000000000000815260040161126690612151565b60405180910390fd5b80600160008573ffffffffffffffffffffffffffffffffffffffff1673ffffffffffffffffffffffffffffffffffffffff16815260200190815260200160002060008473ffffffffffffffffffffffffffffffffffffffff1673ffffffffffffffffffffffffffffffffffffffff168152602001908152602001600020819055508173ffffffffffffffffffffffffffffffffffffffff168373ffffffffffffffffffffffffffffffffffffffff167f8c5be1e5ebec7d5bd14f71427d1e84f3dd0314c0f7b2291e5b200ac8c7c3b9258360405161134d9190612271565b60405180910390a3505050565b600061137934344761136c91906123f6565b61137461083b565b6118e0565b9050828110156113be576040517f08c379a00000000000000000000000000000000000000000000000000000000081526004016113b590612111565b60405180910390fd5b600560009054906101000a900473ffffffffffffffffffffffffffffffffffffffff1673ffffffffffffffffffffffffffffffffffffffff1663a9059cbb83836040518363ffffffff1660e01b815260040161141b92919061208b565b602060405180830381600087803b15801561143557600080fd5b505af1158015611449573d6000803e3d6000fd5b505050506040513d601f19601f8201168201806040525081019061146d9190611cde565b50505050565b600061147f8484610e5d565b90507fffffffffffffffffffffffffffffffffffffffffffffffffffffffffffffffff81146114f957818110156114eb576040517f08c379a00000000000000000000000000000000000000000000000000000000081526004016114e290612171565b60405180910390fd5b6114f8848484840361118f565b5b50505050565b600073ffffffffffffffffffffffffffffffffffffffff168373ffffffffffffffffffffffffffffffffffffffff16141561156f576040517f08c379a0000000000000000000000000000000000000000000000000000000008152600401611566906121f1565b60405180910390fd5b600073ffffffffffffffffffffffffffffffffffffffff168273ffffffffffffffffffffffffffffffffffffffff1614156115df576040517f08c379a00000000000000000000000000000000000000000000000000000000081526004016115d6906120f1565b60405180910390fd5b6115ea838383611b52565b60008060008573ffffffffffffffffffffffffffffffffffffffff1673ffffffffffffffffffffffffffffffffffffffff16815260200190815260200160002054905081811015611670576040517f08c379a000000000000000000000000000000000000000000000000000000000815260040161166790612191565b60405180910390fd5b8181036000808673ffffffffffffffffffffffffffffffffffffffff1673ffffffffffffffffffffffffffffffffffffffff16815260200190815260200160002081905550816000808573ffffffffffffffffffffffffffffffffffffffff1673ffffffffffffffffffffffffffffffffffffffff16815260200190815260200160002060008282546117039190612315565b925050819055508273ffffffffffffffffffffffffffffffffffffffff168473ffffffffffffffffffffffffffffffffffffffff167fddf252ad1be2c89b69c2b068fc378daa952ba7f163c4a11628f55a4df523b3ef846040516117679190612271565b60405180910390a361177a848484611b57565b50505050565b600073ffffffffffffffffffffffffffffffffffffffff168273ffffffffffffffffffffffffffffffffffffffff1614156117f0576040517f08c379a00000000000000000000000000000000000000000000000000000000081526004016117e790612251565b60405180910390fd5b6117fc60008383611b52565b806002600082825461180e9190612315565b92505081905550806000808473ffffffffffffffffffffffffffffffffffffffff1673ffffffffffffffffffffffffffffffffffffffff16815260200190815260200160002060008282546118639190612315565b925050819055508173ffffffffffffffffffffffffffffffffffffffff16600073ffffffffffffffffffffffffffffffffffffffff167fddf252ad1be2c89b69c2b068fc378daa952ba7f163c4a11628f55a4df523b3ef836040516118c89190612271565b60405180910390a36118dc60008383611b57565b5050565b600080831180156118f15750600082115b611930576040517f08c379a000000000000000000000000000000000000000000000000000000000815260040161192790612111565b60405180910390fd5b60006103e585611940919061239c565b9050806103e885611951919061239c565b61195b9190612315565b8382611967919061239c565b611971919061236b565b9150509392505050565b600073ffffffffffffffffffffffffffffffffffffffff168273ffffffffffffffffffffffffffffffffffffffff1614156119eb576040517f08c379a00000000000000000000000000000000000000000000000000000000081526004016119e2906121d1565b60405180910390fd5b6119f782600083611b52565b60008060008473ffffffffffffffffffffffffffffffffffffffff1673ffffffffffffffffffffffffffffffffffffffff16815260200190815260200160002054905081811015611a7d576040517f08c379a0000000000000000000000000000000000000000000000000000000008152600401611a7490612131565b60405180910390fd5b8181036000808573ffffffffffffffffffffffffffffffffffffffff1673ffffffffffffffffffffffffffffffffffffffff168152602001908152602001600020819055508160026000828254611ad491906123f6565b92505081905550600073ffffffffffffffffffffffffffffffffffffffff168373ffffffffffffffffffffffffffffffffffffffff167fddf252ad1be2c89b69c2b068fc378daa952ba7f163c4a11628f55a4df523b3ef84604051611b399190612271565b60405180910390a3611b4d83600084611b57565b505050565b505050565b505050565b600081359050611b6b8161289e565b92915050565b600081519050611b808161289e565b92915050565b600081519050611b95816128b5565b92915050565b600081359050611baa816128cc565b92915050565b600081519050611bbf816128cc565b92915050565b600060208284031215611bd757600080fd5b6000611be584828501611b5c565b91505092915050565b600060208284031215611c0057600080fd5b6000611c0e84828501611b71565b91505092915050565b60008060408385031215611c2a57600080fd5b6000611c3885828601611b5c565b9250506020611c4985828601611b5c565b9150509250929050565b600080600060608486031215611c6857600080fd5b6000611c7686828701611b5c565b9350506020611c8786828701611b5c565b9250506040611c9886828701611b9b565b9150509250925092565b60008060408385031215611cb557600080fd5b6000611cc385828601611b5c565b9250506020611cd485828601611b9b565b9150509250929050565b600060208284031215611cf057600080fd5b6000611cfe84828501611b86565b91505092915050565b600060208284031215611d1957600080fd5b6000611d2784828501611b9b565b91505092915050565b600060208284031215611d4257600080fd5b6000611d5084828501611bb0565b91505092915050565b60008060408385031215611d6c57600080fd5b6000611d7a85828601611b9b565b9250506020611d8b85828601611b5c565b9150509250929050565b60008060408385031215611da857600080fd5b6000611db685828601611b9b565b9250506020611dc785828601611b9b565b9150509250929050565b600080600060608486031215611de657600080fd5b6000611df486828701611b9b565b9350506020611e0586828701611b9b565b9250506040611e1686828701611b5c565b9150509250925092565b611e298161242a565b82525050565b611e388161243c565b82525050565b6000611e49826122f9565b611e538185612304565b9350611e6381856020860161247f565b611e6c81612571565b840191505092915050565b6000611e84602383612304565b9150611e8f82612582565b604082019050919050565b6000611ea7600283612304565b9150611eb2826125d1565b602082019050919050565b6000611eca602283612304565b9150611ed5826125fa565b604082019050919050565b6000611eed602283612304565b9150611ef882612649565b604082019050919050565b6000611f10601d83612304565b9150611f1b82612698565b602082019050919050565b6000611f33602683612304565b9150611f3e826126c1565b604082019050919050565b6000611f56600283612304565b9150611f6182612710565b602082019050919050565b6000611f79602183612304565b9150611f8482612739565b604082019050919050565b6000611f9c602583612304565b9150611fa782612788565b604082019050919050565b6000611fbf602483612304565b9150611fca826127d7565b604082019050919050565b6000611fe2602583612304565b9150611fed82612826565b604082019050919050565b6000612005601f83612304565b915061201082612875565b602082019050919050565b61202481612468565b82525050565b61203381612472565b82525050565b600060208201905061204e6000830184611e20565b92915050565b60006060820190506120696000830186611e20565b6120766020830185611e20565b612083604083018461201b565b949350505050565b60006040820190506120a06000830185611e20565b6120ad602083018461201b565b9392505050565b60006020820190506120c96000830184611e2f565b92915050565b600060208201905081810360008301526120e98184611e3e565b905092915050565b6000602082019050818103600083015261210a81611e77565b9050919050565b6000602082019050818103600083015261212a81611e9a565b9050919050565b6000602082019050818103600083015261214a81611ebd565b9050919050565b6000602082019050818103600083015261216a81611ee0565b9050919050565b6000602082019050818103600083015261218a81611f03565b9050919050565b600060208201905081810360008301526121aa81611f26565b9050919050565b600060208201905081810360008301526121ca81611f49565b9050919050565b600060208201905081810360008301526121ea81611f6c565b9050919050565b6000602082019050818103600083015261220a81611f8f565b9050919050565b6000602082019050818103600083015261222a81611fb2565b9050919050565b6000602082019050818103600083015261224a81611fd5565b9050919050565b6000602082019050818103600083015261226a81611ff8565b9050919050565b6000602082019050612286600083018461201b565b92915050565b60006040820190506122a1600083018561201b565b6122ae6020830184611e20565b9392505050565b60006040820190506122ca600083018561201b565b6122d7602083018461201b565b9392505050565b60006020820190506122f3600083018461202a565b92915050565b600081519050919050565b600082825260208201905092915050565b600061232082612468565b915061232b83612468565b9250827fffffffffffffffffffffffffffffffffffffffffffffffffffffffffffffffff038211156123605761235f6124e4565b5b828201905092915050565b600061237682612468565b915061238183612468565b92508261239157612390612513565b5b828204905092915050565b60006123a782612468565b91506123b283612468565b9250817fffffffffffffffffffffffffffffffffffffffffffffffffffffffffffffffff04831182151516156123eb576123ea6124e4565b5b828202905092915050565b600061240182612468565b915061240c83612468565b92508282101561241f5761241e6124e4565b5b828203905092915050565b600061243582612448565b9050919050565b60008115159050919050565b600073ffffffffffffffffffffffffffffffffffffffff82169050919050565b6000819050919050565b600060ff82169050919050565b60005b8381101561249d578082015181840152602081019050612482565b838111156124ac576000848401525b50505050565b600060028204905060018216806124ca57607f821691505b602082108114156124de576124dd612542565b5b50919050565b7f4e487b7100000000000000000000000000000000000000000000000000000000600052601160045260246000fd5b7f4e487b7100000000000000000000000000000000000000000000000000000000600052601260045260246000fd5b7f4e487b7100000000000000000000000000000000000000000000000000000000600052602260045260246000fd5b6000601f19601f8301169050919050565b7f45524332303a207472616e7366657220746f20746865207a65726f206164647260008201527f6573730000000000000000000000000000000000000000000000000000000000602082015250565b7f4532000000000000000000000000000000000000000000000000000000000000600082015250565b7f45524332303a206275726e20616d6f756e7420657863656564732062616c616e60008201527f6365000000000000000000000000000000000000000000000000000000000000602082015250565b7f45524332303a20617070726f766520746f20746865207a65726f20616464726560008201527f7373000000000000000000000000000000000000000000000000000000000000602082015250565b7f45524332303a20696e73756666696369656e7420616c6c6f77616e6365000000600082015250565b7f45524332303a207472616e7366657220616d6f756e742065786365656473206260008201527f616c616e63650000000000000000000000000000000000000000000000000000602082015250565b7f4531000000000000000000000000000000000000000000000000000000000000600082015250565b7f45524332303a206275726e2066726f6d20746865207a65726f2061646472657360008201527f7300000000000000000000000000000000000000000000000000000000000000602082015250565b7f45524332303a207472616e736665722066726f6d20746865207a65726f20616460008201527f6472657373000000000000000000000000000000000000000000000000000000602082015250565b7f45524332303a20617070726f76652066726f6d20746865207a65726f2061646460008201527f7265737300000000000000000000000000000000000000000000000000000000602082015250565b7f45524332303a2064656372656173656420616c6c6f77616e63652062656c6f7760008201527f207a65726f000000000000000000000000000000000000000000000000000000602082015250565b7f45524332303a206d696e7420746f20746865207a65726f206164647265737300600082015250565b6128a78161242a565b81146128b257600080fd5b50565b6128be8161243c565b81146128c957600080fd5b50565b6128d581612468565b81146128e057600080fd5b5056fea2646970667358221220e03a71918fc054aca13503d6fa414cf5bb3fcb9fcb090ae90b5928efb6c129e764736f6c63430008040033",
  "linkReferences": {},
  "deployedLinkReferences": {}
}