{
	"data": {
		"bytecode": {
			"linkReferences": {},
			"object": "60806040523480156200001157600080fd5b5060405162002e5738038062002e5783398181016040528101906200003791906200029a565b6040518060400160405280600781526020017f556e6973776170000000000000000000000000000000000000000000000000008152506040518060400160405280600381526020017f554e4900000000000000000000000000000000000000000000000000000000008152508160039080519060200190620000bb929190620001d3565b508060049080519060200190620000d4929190620001d3565b505050600073ffffffffffffffffffffffffffffffffffffffff168173ffffffffffffffffffffffffffffffffffffffff1614156200014a576040517f08c379a00000000000000000000000000000000000000000000000000000000081526004016200014190620002f3565b60405180910390fd5b80600560006101000a81548173ffffffffffffffffffffffffffffffffffffffff021916908373ffffffffffffffffffffffffffffffffffffffff16021790555033600660006101000a81548173ffffffffffffffffffffffffffffffffffffffff021916908373ffffffffffffffffffffffffffffffffffffffff1602179055505062000407565b828054620001e1906200035a565b90600052602060002090601f01602090048101928262000205576000855562000251565b82601f106200022057805160ff191683800117855562000251565b8280016001018555821562000251579182015b828111156200025057825182559160200191906001019062000233565b5b50905062000260919062000264565b5090565b5b808211156200027f57600081600090555060010162000265565b5090565b6000815190506200029481620003ed565b92915050565b600060208284031215620002b357620002b2620003bf565b5b6000620002c38482850162000283565b91505092915050565b6000620002db60028362000315565b9150620002e882620003c4565b602082019050919050565b600060208201905081810360008301526200030e81620002cc565b9050919050565b600082825260208201905092915050565b600062000333826200033a565b9050919050565b600073ffffffffffffffffffffffffffffffffffffffff82169050919050565b600060028204905060018216806200037357607f821691505b602082108114156200038a576200038962000390565b5b50919050565b7f4e487b7100000000000000000000000000000000000000000000000000000000600052602260045260246000fd5b600080fd5b7f4531000000000000000000000000000000000000000000000000000000000000600082015250565b620003f88162000326565b81146200040457600080fd5b50565b612a4080620004176000396000f3fe6080604052600436106101405760003560e01c806382d5d7ac116100b6578063a457c2d71161006f578063a457c2d714610474578063a9059cbb146104b1578063c2507ac1146104ee578063dd62ed3e1461052b578063f7a7e32414610568578063fede4ba41461059157610140565b806382d5d7ac1461035c578063872768261461039957806395d89b41146103b5578063966dae0e146103e05780639c8f9f231461040b5780639d76ea581461044957610140565b806323b872dd1161010857806323b872dd1461021f578063313ce5671461025c578063395093511461028757806351c6590a146102c457806359bf5d39146102f457806370a082311461031f57610140565b8063012a33aa1461014557806306fdde0314610170578063095ea7b31461019b57806318160ddd146101d8578063237e22d014610203575b600080fd5b34801561015157600080fd5b5061015a6105ad565b6040516101679190612393565b60405180910390f35b34801561017c57600080fd5b506101856105b5565b60405161019291906121f1565b60405180910390f35b3480156101a757600080fd5b506101c260048036038101906101bd9190611da8565b610647565b6040516101cf91906121d6565b60405180910390f35b3480156101e457600080fd5b506101ed61066a565b6040516101fa9190612393565b60405180910390f35b61021d60048036038101906102189190611e6f565b610674565b005b34801561022b57600080fd5b5061024660048036038101906102419190611d55565b610682565b60405161025391906121d6565b60405180910390f35b34801561026857600080fd5b506102716106b1565b60405161027e9190612400565b60405180910390f35b34801561029357600080fd5b506102ae60048036038101906102a99190611da8565b6106ba565b6040516102bb91906121d6565b60405180910390f35b6102de60048036038101906102d99190611e15565b6106f1565b6040516102eb9190612393565b60405180910390f35b34801561030057600080fd5b50610309610931565b6040516103169190612393565b60405180910390f35b34801561032b57600080fd5b5061034660048036038101906103419190611cbb565b6109e3565b6040516103539190612393565b60405180910390f35b34801561036857600080fd5b50610383600480360381019061037e9190611e15565b610a2b565b6040516103909190612393565b60405180910390f35b6103b360048036038101906103ae9190611eaf565b610a88565b005b3480156103c157600080fd5b506103ca610bdf565b6040516103d791906121f1565b60405180910390f35b3480156103ec57600080fd5b506103f5610c71565b604051610402919061215b565b60405180910390f35b34801561041757600080fd5b50610432600480360381019061042d9190611e15565b610c97565b6040516104409291906123d7565b60405180910390f35b34801561045557600080fd5b5061045e610e36565b60405161046b919061215b565b60405180910390f35b34801561048057600080fd5b5061049b60048036038101906104969190611da8565b610e5c565b6040516104a891906121d6565b60405180910390f35b3480156104bd57600080fd5b506104d860048036038101906104d39190611da8565b610ed3565b6040516104e591906121d6565b60405180910390f35b3480156104fa57600080fd5b5061051560048036038101906105109190611e15565b610ef6565b6040516105229190612393565b60405180910390f35b34801561053757600080fd5b50610552600480360381019061054d9190611d15565b610f53565b60405161055f9190612393565b60405180910390f35b34801561057457600080fd5b5061058f600480360381019061058a9190611eef565b610fda565b005b6105ab60048036038101906105a69190611e15565b611270565b005b600047905090565b6060600380546105c4906125d4565b80601f01602080910402602001604051908101604052809291908181526020018280546105f0906125d4565b801561063d5780601f106106125761010080835404028352916020019161063d565b820191906000526020600020905b81548152906001019060200180831161062057829003601f168201915b5050505050905090565b60008061065261127d565b905061065f818585611285565b600191505092915050565b6000600254905090565b61067e8282611450565b5050565b60008061068d61127d565b905061069a858285611569565b6106a58585856115f5565b60019150509392505050565b60006012905090565b6000806106c561127d565b90506106e68185856106d78589610f53565b6106e19190612437565b611285565b600191505092915050565b6000806106fc610931565b14156107cc57600560009054906101000a900473ffffffffffffffffffffffffffffffffffffffff1673ffffffffffffffffffffffffffffffffffffffff166323b872dd3330856040518463ffffffff1660e01b815260040161076193929190612176565b602060405180830381600087803b15801561077b57600080fd5b505af115801561078f573d6000803e3d6000fd5b505050506040513d601f19601f820116820180604052508101906107b39190611de8565b5060004790506107c33382611876565b8091505061092c565b600034476107da9190612518565b905060006107e6610931565b905060008282346107f791906124be565b610801919061248d565b905080851015610846576040517f08c379a000000000000000000000000000000000000000000000000000000000815260040161083d90612233565b60405180910390fd5b600560009054906101000a900473ffffffffffffffffffffffffffffffffffffffff1673ffffffffffffffffffffffffffffffffffffffff166323b872dd3330846040518463ffffffff1660e01b81526004016108a593929190612176565b602060405180830381600087803b1580156108bf57600080fd5b505af11580156108d3573d6000803e3d6000fd5b505050506040513d601f19601f820116820180604052508101906108f79190611de8565b5060008361090361066a565b3461090e91906124be565b610918919061248d565b90506109243382611876565b809450505050505b919050565b6000600560009054906101000a900473ffffffffffffffffffffffffffffffffffffffff1673ffffffffffffffffffffffffffffffffffffffff166370a08231306040518263ffffffff1660e01b815260040161098e919061215b565b60206040518083038186803b1580156109a657600080fd5b505afa1580156109ba573d6000803e3d6000fd5b505050506040513d601f19601f820116820180604052508101906109de9190611e42565b905090565b60008060008373ffffffffffffffffffffffffffffffffffffffff1673ffffffffffffffffffffffffffffffffffffffff168152602001908152602001600020549050919050565b6000808211610a6f576040517f08c379a0000000000000000000000000000000000000000000000000000000008152600401610a6690612233565b60405180910390fd5b610a8182610a7b610931565b476119d6565b9050919050565b6000610a9c83610a96610931565b476119d6565b905081811015610ae1576040517f08c379a0000000000000000000000000000000000000000000000000000000008152600401610ad890612233565b60405180910390fd5b600560009054906101000a900473ffffffffffffffffffffffffffffffffffffffff1673ffffffffffffffffffffffffffffffffffffffff166323b872dd3330866040518463ffffffff1660e01b8152600401610b4093929190612176565b602060405180830381600087803b158015610b5a57600080fd5b505af1158015610b6e573d6000803e3d6000fd5b505050506040513d601f19601f82011682018060405250810190610b929190611de8565b503373ffffffffffffffffffffffffffffffffffffffff166108fc829081150290604051600060405180830381858888f19350505050158015610bd9573d6000803e3d6000fd5b50505050565b606060048054610bee906125d4565b80601f0160208091040260200160405190810160405280929190818152602001828054610c1a906125d4565b8015610c675780601f10610c3c57610100808354040283529160200191610c67565b820191906000526020600020905b815481529060010190602001808311610c4a57829003601f168201915b5050505050905090565b600660009054906101000a900473ffffffffffffffffffffffffffffffffffffffff1681565b60008060008311610cdd576040517f08c379a0000000000000000000000000000000000000000000000000000000008152600401610cd490612233565b60405180910390fd5b6000610ce761066a565b8447610cf391906124be565b610cfd919061248d565b90506000610d0961066a565b85610d12610931565b610d1c91906124be565b610d26919061248d565b9050610d323386611a71565b3373ffffffffffffffffffffffffffffffffffffffff166108fc839081150290604051600060405180830381858888f19350505050158015610d78573d6000803e3d6000fd5b50600560009054906101000a900473ffffffffffffffffffffffffffffffffffffffff1673ffffffffffffffffffffffffffffffffffffffff1663a9059cbb33836040518363ffffffff1660e01b8152600401610dd69291906121ad565b602060405180830381600087803b158015610df057600080fd5b505af1158015610e04573d6000803e3d6000fd5b505050506040513d601f19601f82011682018060405250810190610e289190611de8565b508181935093505050915091565b600560009054906101000a900473ffffffffffffffffffffffffffffffffffffffff1681565b600080610e6761127d565b90506000610e758286610f53565b905083811015610eba576040517f08c379a0000000000000000000000000000000000000000000000000000000008152600401610eb190612353565b60405180910390fd5b610ec78286868403611285565b60019250505092915050565b600080610ede61127d565b9050610eeb8185856115f5565b600191505092915050565b6000808211610f3a576040517f08c379a0000000000000000000000000000000000000000000000000000000008152600401610f3190612233565b60405180910390fd5b610f4c8247610f47610931565b6119d6565b9050919050565b6000600160008473ffffffffffffffffffffffffffffffffffffffff1673ffffffffffffffffffffffffffffffffffffffff16815260200190815260200160002060008373ffffffffffffffffffffffffffffffffffffffff1673ffffffffffffffffffffffffffffffffffffffff16815260200190815260200160002054905092915050565b6000600660009054906101000a900473ffffffffffffffffffffffffffffffffffffffff1673ffffffffffffffffffffffffffffffffffffffff166306f2bf62836040518263ffffffff1660e01b8152600401611037919061215b565b602060405180830381600087803b15801561105157600080fd5b505af1158015611065573d6000803e3d6000fd5b505050506040513d601f19601f820116820180604052508101906110899190611ce8565b90503073ffffffffffffffffffffffffffffffffffffffff168173ffffffffffffffffffffffffffffffffffffffff16141580156110f45750600073ffffffffffffffffffffffffffffffffffffffff168173ffffffffffffffffffffffffffffffffffffffff1614155b611133576040517f08c379a000000000000000000000000000000000000000000000000000000000815260040161112a906122d3565b60405180910390fd5b600061114785611141610931565b476119d6565b9050600560009054906101000a900473ffffffffffffffffffffffffffffffffffffffff1673ffffffffffffffffffffffffffffffffffffffff166323b872dd3330886040518463ffffffff1660e01b81526004016111a893929190612176565b602060405180830381600087803b1580156111c257600080fd5b505af11580156111d6573d6000803e3d6000fd5b505050506040513d601f19601f820116820180604052508101906111fa9190611de8565b508173ffffffffffffffffffffffffffffffffffffffff1663237e22d08286336040518463ffffffff1660e01b81526004016112379291906123ae565b6000604051808303818588803b15801561125057600080fd5b505af1158015611264573d6000803e3d6000fd5b50505050505050505050565b61127a8133611450565b50565b600033905090565b600073ffffffffffffffffffffffffffffffffffffffff168373ffffffffffffffffffffffffffffffffffffffff1614156112f5576040517f08c379a00000000000000000000000000000000000000000000000000000000081526004016112ec90612333565b60405180910390fd5b600073ffffffffffffffffffffffffffffffffffffffff168273ffffffffffffffffffffffffffffffffffffffff161415611365576040517f08c379a000000000000000000000000000000000000000000000000000000000815260040161135c90612273565b60405180910390fd5b80600160008573ffffffffffffffffffffffffffffffffffffffff1673ffffffffffffffffffffffffffffffffffffffff16815260200190815260200160002060008473ffffffffffffffffffffffffffffffffffffffff1673ffffffffffffffffffffffffffffffffffffffff168152602001908152602001600020819055508173ffffffffffffffffffffffffffffffffffffffff168373ffffffffffffffffffffffffffffffffffffffff167f8c5be1e5ebec7d5bd14f71427d1e84f3dd0314c0f7b2291e5b200ac8c7c3b925836040516114439190612393565b60405180910390a3505050565b600061146f3434476114629190612518565b61146a610931565b6119d6565b9050828110156114b4576040517f08c379a00000000000000000000000000000000000000000000000000000000081526004016114ab90612233565b60405180910390fd5b600560009054906101000a900473ffffffffffffffffffffffffffffffffffffffff1673ffffffffffffffffffffffffffffffffffffffff1663a9059cbb83836040518363ffffffff1660e01b81526004016115119291906121ad565b602060405180830381600087803b15801561152b57600080fd5b505af115801561153f573d6000803e3d6000fd5b505050506040513d601f19601f820116820180604052508101906115639190611de8565b50505050565b60006115758484610f53565b90507fffffffffffffffffffffffffffffffffffffffffffffffffffffffffffffffff81146115ef57818110156115e1576040517f08c379a00000000000000000000000000000000000000000000000000000000081526004016115d890612293565b60405180910390fd5b6115ee8484848403611285565b5b50505050565b600073ffffffffffffffffffffffffffffffffffffffff168373ffffffffffffffffffffffffffffffffffffffff161415611665576040517f08c379a000000000000000000000000000000000000000000000000000000000815260040161165c90612313565b60405180910390fd5b600073ffffffffffffffffffffffffffffffffffffffff168273ffffffffffffffffffffffffffffffffffffffff1614156116d5576040517f08c379a00000000000000000000000000000000000000000000000000000000081526004016116cc90612213565b60405180910390fd5b6116e0838383611c48565b60008060008573ffffffffffffffffffffffffffffffffffffffff1673ffffffffffffffffffffffffffffffffffffffff16815260200190815260200160002054905081811015611766576040517f08c379a000000000000000000000000000000000000000000000000000000000815260040161175d906122b3565b60405180910390fd5b8181036000808673ffffffffffffffffffffffffffffffffffffffff1673ffffffffffffffffffffffffffffffffffffffff16815260200190815260200160002081905550816000808573ffffffffffffffffffffffffffffffffffffffff1673ffffffffffffffffffffffffffffffffffffffff16815260200190815260200160002060008282546117f99190612437565b925050819055508273ffffffffffffffffffffffffffffffffffffffff168473ffffffffffffffffffffffffffffffffffffffff167fddf252ad1be2c89b69c2b068fc378daa952ba7f163c4a11628f55a4df523b3ef8460405161185d9190612393565b60405180910390a3611870848484611c4d565b50505050565b600073ffffffffffffffffffffffffffffffffffffffff168273ffffffffffffffffffffffffffffffffffffffff1614156118e6576040517f08c379a00000000000000000000000000000000000000000000000000000000081526004016118dd90612373565b60405180910390fd5b6118f260008383611c48565b80600260008282546119049190612437565b92505081905550806000808473ffffffffffffffffffffffffffffffffffffffff1673ffffffffffffffffffffffffffffffffffffffff16815260200190815260200160002060008282546119599190612437565b925050819055508173ffffffffffffffffffffffffffffffffffffffff16600073ffffffffffffffffffffffffffffffffffffffff167fddf252ad1be2c89b69c2b068fc378daa952ba7f163c4a11628f55a4df523b3ef836040516119be9190612393565b60405180910390a36119d260008383611c4d565b5050565b600080831180156119e75750600082115b611a26576040517f08c379a0000000000000000000000000000000000000000000000000000000008152600401611a1d90612233565b60405180910390fd5b60006103e585611a3691906124be565b9050806103e885611a4791906124be565b611a519190612437565b8382611a5d91906124be565b611a67919061248d565b9150509392505050565b600073ffffffffffffffffffffffffffffffffffffffff168273ffffffffffffffffffffffffffffffffffffffff161415611ae1576040517f08c379a0000000000000000000000000000000000000000000000000000000008152600401611ad8906122f3565b60405180910390fd5b611aed82600083611c48565b60008060008473ffffffffffffffffffffffffffffffffffffffff1673ffffffffffffffffffffffffffffffffffffffff16815260200190815260200160002054905081811015611b73576040517f08c379a0000000000000000000000000000000000000000000000000000000008152600401611b6a90612253565b60405180910390fd5b8181036000808573ffffffffffffffffffffffffffffffffffffffff1673ffffffffffffffffffffffffffffffffffffffff168152602001908152602001600020819055508160026000828254611bca9190612518565b92505081905550600073ffffffffffffffffffffffffffffffffffffffff168373ffffffffffffffffffffffffffffffffffffffff167fddf252ad1be2c89b69c2b068fc378daa952ba7f163c4a11628f55a4df523b3ef84604051611c2f9190612393565b60405180910390a3611c4383600084611c4d565b505050565b505050565b505050565b600081359050611c61816129c5565b92915050565b600081519050611c76816129c5565b92915050565b600081519050611c8b816129dc565b92915050565b600081359050611ca0816129f3565b92915050565b600081519050611cb5816129f3565b92915050565b600060208284031215611cd157611cd0612693565b5b6000611cdf84828501611c52565b91505092915050565b600060208284031215611cfe57611cfd612693565b5b6000611d0c84828501611c67565b91505092915050565b60008060408385031215611d2c57611d2b612693565b5b6000611d3a85828601611c52565b9250506020611d4b85828601611c52565b9150509250929050565b600080600060608486031215611d6e57611d6d612693565b5b6000611d7c86828701611c52565b9350506020611d8d86828701611c52565b9250506040611d9e86828701611c91565b9150509250925092565b60008060408385031215611dbf57611dbe612693565b5b6000611dcd85828601611c52565b9250506020611dde85828601611c91565b9150509250929050565b600060208284031215611dfe57611dfd612693565b5b6000611e0c84828501611c7c565b91505092915050565b600060208284031215611e2b57611e2a612693565b5b6000611e3984828501611c91565b91505092915050565b600060208284031215611e5857611e57612693565b5b6000611e6684828501611ca6565b91505092915050565b60008060408385031215611e8657611e85612693565b5b6000611e9485828601611c91565b9250506020611ea585828601611c52565b9150509250929050565b60008060408385031215611ec657611ec5612693565b5b6000611ed485828601611c91565b9250506020611ee585828601611c91565b9150509250929050565b600080600060608486031215611f0857611f07612693565b5b6000611f1686828701611c91565b9350506020611f2786828701611c91565b9250506040611f3886828701611c52565b9150509250925092565b611f4b8161254c565b82525050565b611f5a8161255e565b82525050565b6000611f6b8261241b565b611f758185612426565b9350611f858185602086016125a1565b611f8e81612698565b840191505092915050565b6000611fa6602383612426565b9150611fb1826126a9565b604082019050919050565b6000611fc9600283612426565b9150611fd4826126f8565b602082019050919050565b6000611fec602283612426565b9150611ff782612721565b604082019050919050565b600061200f602283612426565b915061201a82612770565b604082019050919050565b6000612032601d83612426565b915061203d826127bf565b602082019050919050565b6000612055602683612426565b9150612060826127e8565b604082019050919050565b6000612078600283612426565b915061208382612837565b602082019050919050565b600061209b602183612426565b91506120a682612860565b604082019050919050565b60006120be602583612426565b91506120c9826128af565b604082019050919050565b60006120e1602483612426565b91506120ec826128fe565b604082019050919050565b6000612104602583612426565b915061210f8261294d565b604082019050919050565b6000612127601f83612426565b91506121328261299c565b602082019050919050565b6121468161258a565b82525050565b61215581612594565b82525050565b60006020820190506121706000830184611f42565b92915050565b600060608201905061218b6000830186611f42565b6121986020830185611f42565b6121a5604083018461213d565b949350505050565b60006040820190506121c26000830185611f42565b6121cf602083018461213d565b9392505050565b60006020820190506121eb6000830184611f51565b92915050565b6000602082019050818103600083015261220b8184611f60565b905092915050565b6000602082019050818103600083015261222c81611f99565b9050919050565b6000602082019050818103600083015261224c81611fbc565b9050919050565b6000602082019050818103600083015261226c81611fdf565b9050919050565b6000602082019050818103600083015261228c81612002565b9050919050565b600060208201905081810360008301526122ac81612025565b9050919050565b600060208201905081810360008301526122cc81612048565b9050919050565b600060208201905081810360008301526122ec8161206b565b9050919050565b6000602082019050818103600083015261230c8161208e565b9050919050565b6000602082019050818103600083015261232c816120b1565b9050919050565b6000602082019050818103600083015261234c816120d4565b9050919050565b6000602082019050818103600083015261236c816120f7565b9050919050565b6000602082019050818103600083015261238c8161211a565b9050919050565b60006020820190506123a8600083018461213d565b92915050565b60006040820190506123c3600083018561213d565b6123d06020830184611f42565b9392505050565b60006040820190506123ec600083018561213d565b6123f9602083018461213d565b9392505050565b6000602082019050612415600083018461214c565b92915050565b600081519050919050565b600082825260208201905092915050565b60006124428261258a565b915061244d8361258a565b9250827fffffffffffffffffffffffffffffffffffffffffffffffffffffffffffffffff0382111561248257612481612606565b5b828201905092915050565b60006124988261258a565b91506124a38361258a565b9250826124b3576124b2612635565b5b828204905092915050565b60006124c98261258a565b91506124d48361258a565b9250817fffffffffffffffffffffffffffffffffffffffffffffffffffffffffffffffff048311821515161561250d5761250c612606565b5b828202905092915050565b60006125238261258a565b915061252e8361258a565b92508282101561254157612540612606565b5b828203905092915050565b60006125578261256a565b9050919050565b60008115159050919050565b600073ffffffffffffffffffffffffffffffffffffffff82169050919050565b6000819050919050565b600060ff82169050919050565b60005b838110156125bf5780820151818401526020810190506125a4565b838111156125ce576000848401525b50505050565b600060028204905060018216806125ec57607f821691505b60208210811415612600576125ff612664565b5b50919050565b7f4e487b7100000000000000000000000000000000000000000000000000000000600052601160045260246000fd5b7f4e487b7100000000000000000000000000000000000000000000000000000000600052601260045260246000fd5b7f4e487b7100000000000000000000000000000000000000000000000000000000600052602260045260246000fd5b600080fd5b6000601f19601f8301169050919050565b7f45524332303a207472616e7366657220746f20746865207a65726f206164647260008201527f6573730000000000000000000000000000000000000000000000000000000000602082015250565b7f4532000000000000000000000000000000000000000000000000000000000000600082015250565b7f45524332303a206275726e20616d6f756e7420657863656564732062616c616e60008201527f6365000000000000000000000000000000000000000000000000000000000000602082015250565b7f45524332303a20617070726f766520746f20746865207a65726f20616464726560008201527f7373000000000000000000000000000000000000000000000000000000000000602082015250565b7f45524332303a20696e73756666696369656e7420616c6c6f77616e6365000000600082015250565b7f45524332303a207472616e7366657220616d6f756e742065786365656473206260008201527f616c616e63650000000000000000000000000000000000000000000000000000602082015250565b7f4531000000000000000000000000000000000000000000000000000000000000600082015250565b7f45524332303a206275726e2066726f6d20746865207a65726f2061646472657360008201527f7300000000000000000000000000000000000000000000000000000000000000602082015250565b7f45524332303a207472616e736665722066726f6d20746865207a65726f20616460008201527f6472657373000000000000000000000000000000000000000000000000000000602082015250565b7f45524332303a20617070726f76652066726f6d20746865207a65726f2061646460008201527f7265737300000000000000000000000000000000000000000000000000000000602082015250565b7f45524332303a2064656372656173656420616c6c6f77616e63652062656c6f7760008201527f207a65726f000000000000000000000000000000000000000000000000000000602082015250565b7f45524332303a206d696e7420746f20746865207a65726f206164647265737300600082015250565b6129ce8161254c565b81146129d957600080fd5b50565b6129e58161255e565b81146129f057600080fd5b50565b6129fc8161258a565b8114612a0757600080fd5b5056fea2646970667358221220751be49e9b1d5ac69cac3b290de0e5dccda9ed4bf74c05486ee1daff4c7482b364736f6c63430008070033",
			"opcodes": "PUSH1 0x80 PUSH1 0x40 MSTORE CALLVALUE DUP1 ISZERO PUSH3 0x11 JUMPI PUSH1 0x0 DUP1 REVERT JUMPDEST POP PUSH1 0x40 MLOAD PUSH3 0x2E57 CODESIZE SUB DUP1 PUSH3 0x2E57 DUP4 CODECOPY DUP2 DUP2 ADD PUSH1 0x40 MSTORE DUP2 ADD SWAP1 PUSH3 0x37 SWAP2 SWAP1 PUSH3 0x29A JUMP JUMPDEST PUSH1 0x40 MLOAD DUP1 PUSH1 0x40 ADD PUSH1 0x40 MSTORE DUP1 PUSH1 0x7 DUP2 MSTORE PUSH1 0x20 ADD PUSH32 0x556E697377617000000000000000000000000000000000000000000000000000 DUP2 MSTORE POP PUSH1 0x40 MLOAD DUP1 PUSH1 0x40 ADD PUSH1 0x40 MSTORE DUP1 PUSH1 0x3 DUP2 MSTORE PUSH1 0x20 ADD PUSH32 0x554E490000000000000000000000000000000000000000000000000000000000 DUP2 MSTORE POP DUP2 PUSH1 0x3 SWAP1 DUP1 MLOAD SWAP1 PUSH1 0x20 ADD SWAP1 PUSH3 0xBB SWAP3 SWAP2 SWAP1 PUSH3 0x1D3 JUMP JUMPDEST POP DUP1 PUSH1 0x4 SWAP1 DUP1 MLOAD SWAP1 PUSH1 0x20 ADD SWAP1 PUSH3 0xD4 SWAP3 SWAP2 SWAP1 PUSH3 0x1D3 JUMP JUMPDEST POP POP POP PUSH1 0x0 PUSH20 0xFFFFFFFFFFFFFFFFFFFFFFFFFFFFFFFFFFFFFFFF AND DUP2 PUSH20 0xFFFFFFFFFFFFFFFFFFFFFFFFFFFFFFFFFFFFFFFF AND EQ ISZERO PUSH3 0x14A JUMPI PUSH1 0x40 MLOAD PUSH32 0x8C379A000000000000000000000000000000000000000000000000000000000 DUP2 MSTORE PUSH1 0x4 ADD PUSH3 0x141 SWAP1 PUSH3 0x2F3 JUMP JUMPDEST PUSH1 0x40 MLOAD DUP1 SWAP2 SUB SWAP1 REVERT JUMPDEST DUP1 PUSH1 0x5 PUSH1 0x0 PUSH2 0x100 EXP DUP2 SLOAD DUP2 PUSH20 0xFFFFFFFFFFFFFFFFFFFFFFFFFFFFFFFFFFFFFFFF MUL NOT AND SWAP1 DUP4 PUSH20 0xFFFFFFFFFFFFFFFFFFFFFFFFFFFFFFFFFFFFFFFF AND MUL OR SWAP1 SSTORE POP CALLER PUSH1 0x6 PUSH1 0x0 PUSH2 0x100 EXP DUP2 SLOAD DUP2 PUSH20 0xFFFFFFFFFFFFFFFFFFFFFFFFFFFFFFFFFFFFFFFF MUL NOT AND SWAP1 DUP4 PUSH20 0xFFFFFFFFFFFFFFFFFFFFFFFFFFFFFFFFFFFFFFFF AND MUL OR SWAP1 SSTORE POP POP PUSH3 0x407 JUMP JUMPDEST DUP3 DUP1 SLOAD PUSH3 0x1E1 SWAP1 PUSH3 0x35A JUMP JUMPDEST SWAP1 PUSH1 0x0 MSTORE PUSH1 0x20 PUSH1 0x0 KECCAK256 SWAP1 PUSH1 0x1F ADD PUSH1 0x20 SWAP1 DIV DUP2 ADD SWAP3 DUP3 PUSH3 0x205 JUMPI PUSH1 0x0 DUP6 SSTORE PUSH3 0x251 JUMP JUMPDEST DUP3 PUSH1 0x1F LT PUSH3 0x220 JUMPI DUP1 MLOAD PUSH1 0xFF NOT AND DUP4 DUP1 ADD OR DUP6 SSTORE PUSH3 0x251 JUMP JUMPDEST DUP3 DUP1 ADD PUSH1 0x1 ADD DUP6 SSTORE DUP3 ISZERO PUSH3 0x251 JUMPI SWAP2 DUP3 ADD JUMPDEST DUP3 DUP2 GT ISZERO PUSH3 0x250 JUMPI DUP3 MLOAD DUP3 SSTORE SWAP2 PUSH1 0x20 ADD SWAP2 SWAP1 PUSH1 0x1 ADD SWAP1 PUSH3 0x233 JUMP JUMPDEST JUMPDEST POP SWAP1 POP PUSH3 0x260 SWAP2 SWAP1 PUSH3 0x264 JUMP JUMPDEST POP SWAP1 JUMP JUMPDEST JUMPDEST DUP1 DUP3 GT ISZERO PUSH3 0x27F JUMPI PUSH1 0x0 DUP2 PUSH1 0x0 SWAP1 SSTORE POP PUSH1 0x1 ADD PUSH3 0x265 JUMP JUMPDEST POP SWAP1 JUMP JUMPDEST PUSH1 0x0 DUP2 MLOAD SWAP1 POP PUSH3 0x294 DUP2 PUSH3 0x3ED JUMP JUMPDEST SWAP3 SWAP2 POP POP JUMP JUMPDEST PUSH1 0x0 PUSH1 0x20 DUP3 DUP5 SUB SLT ISZERO PUSH3 0x2B3 JUMPI PUSH3 0x2B2 PUSH3 0x3BF JUMP JUMPDEST JUMPDEST PUSH1 0x0 PUSH3 0x2C3 DUP5 DUP3 DUP6 ADD PUSH3 0x283 JUMP JUMPDEST SWAP2 POP POP SWAP3 SWAP2 POP POP JUMP JUMPDEST PUSH1 0x0 PUSH3 0x2DB PUSH1 0x2 DUP4 PUSH3 0x315 JUMP JUMPDEST SWAP2 POP PUSH3 0x2E8 DUP3 PUSH3 0x3C4 JUMP JUMPDEST PUSH1 0x20 DUP3 ADD SWAP1 POP SWAP2 SWAP1 POP JUMP JUMPDEST PUSH1 0x0 PUSH1 0x20 DUP3 ADD SWAP1 POP DUP2 DUP2 SUB PUSH1 0x0 DUP4 ADD MSTORE PUSH3 0x30E DUP2 PUSH3 0x2CC JUMP JUMPDEST SWAP1 POP SWAP2 SWAP1 POP JUMP JUMPDEST PUSH1 0x0 DUP3 DUP3 MSTORE PUSH1 0x20 DUP3 ADD SWAP1 POP SWAP3 SWAP2 POP POP JUMP JUMPDEST PUSH1 0x0 PUSH3 0x333 DUP3 PUSH3 0x33A JUMP JUMPDEST SWAP1 POP SWAP2 SWAP1 POP JUMP JUMPDEST PUSH1 0x0 PUSH20 0xFFFFFFFFFFFFFFFFFFFFFFFFFFFFFFFFFFFFFFFF DUP3 AND SWAP1 POP SWAP2 SWAP1 POP JUMP JUMPDEST PUSH1 0x0 PUSH1 0x2 DUP3 DIV SWAP1 POP PUSH1 0x1 DUP3 AND DUP1 PUSH3 0x373 JUMPI PUSH1 0x7F DUP3 AND SWAP2 POP JUMPDEST PUSH1 0x20 DUP3 LT DUP2 EQ ISZERO PUSH3 0x38A JUMPI PUSH3 0x389 PUSH3 0x390 JUMP JUMPDEST JUMPDEST POP SWAP2 SWAP1 POP JUMP JUMPDEST PUSH32 0x4E487B7100000000000000000000000000000000000000000000000000000000 PUSH1 0x0 MSTORE PUSH1 0x22 PUSH1 0x4 MSTORE PUSH1 0x24 PUSH1 0x0 REVERT JUMPDEST PUSH1 0x0 DUP1 REVERT JUMPDEST PUSH32 0x4531000000000000000000000000000000000000000000000000000000000000 PUSH1 0x0 DUP3 ADD MSTORE POP JUMP JUMPDEST PUSH3 0x3F8 DUP2 PUSH3 0x326 JUMP JUMPDEST DUP2 EQ PUSH3 0x404 JUMPI PUSH1 0x0 DUP1 REVERT JUMPDEST POP JUMP JUMPDEST PUSH2 0x2A40 DUP1 PUSH3 0x417 PUSH1 0x0 CODECOPY PUSH1 0x0 RETURN INVALID PUSH1 0x80 PUSH1 0x40 MSTORE PUSH1 0x4 CALLDATASIZE LT PUSH2 0x140 JUMPI PUSH1 0x0 CALLDATALOAD PUSH1 0xE0 SHR DUP1 PUSH4 0x82D5D7AC GT PUSH2 0xB6 JUMPI DUP1 PUSH4 0xA457C2D7 GT PUSH2 0x6F JUMPI DUP1 PUSH4 0xA457C2D7 EQ PUSH2 0x474 JUMPI DUP1 PUSH4 0xA9059CBB EQ PUSH2 0x4B1 JUMPI DUP1 PUSH4 0xC2507AC1 EQ PUSH2 0x4EE JUMPI DUP1 PUSH4 0xDD62ED3E EQ PUSH2 0x52B JUMPI DUP1 PUSH4 0xF7A7E324 EQ PUSH2 0x568 JUMPI DUP1 PUSH4 0xFEDE4BA4 EQ PUSH2 0x591 JUMPI PUSH2 0x140 JUMP JUMPDEST DUP1 PUSH4 0x82D5D7AC EQ PUSH2 0x35C JUMPI DUP1 PUSH4 0x87276826 EQ PUSH2 0x399 JUMPI DUP1 PUSH4 0x95D89B41 EQ PUSH2 0x3B5 JUMPI DUP1 PUSH4 0x966DAE0E EQ PUSH2 0x3E0 JUMPI DUP1 PUSH4 0x9C8F9F23 EQ PUSH2 0x40B JUMPI DUP1 PUSH4 0x9D76EA58 EQ PUSH2 0x449 JUMPI PUSH2 0x140 JUMP JUMPDEST DUP1 PUSH4 0x23B872DD GT PUSH2 0x108 JUMPI DUP1 PUSH4 0x23B872DD EQ PUSH2 0x21F JUMPI DUP1 PUSH4 0x313CE567 EQ PUSH2 0x25C JUMPI DUP1 PUSH4 0x39509351 EQ PUSH2 0x287 JUMPI DUP1 PUSH4 0x51C6590A EQ PUSH2 0x2C4 JUMPI DUP1 PUSH4 0x59BF5D39 EQ PUSH2 0x2F4 JUMPI DUP1 PUSH4 0x70A08231 EQ PUSH2 0x31F JUMPI PUSH2 0x140 JUMP JUMPDEST DUP1 PUSH4 0x12A33AA EQ PUSH2 0x145 JUMPI DUP1 PUSH4 0x6FDDE03 EQ PUSH2 0x170 JUMPI DUP1 PUSH4 0x95EA7B3 EQ PUSH2 0x19B JUMPI DUP1 PUSH4 0x18160DDD EQ PUSH2 0x1D8 JUMPI DUP1 PUSH4 0x237E22D0 EQ PUSH2 0x203 JUMPI JUMPDEST PUSH1 0x0 DUP1 REVERT JUMPDEST CALLVALUE DUP1 ISZERO PUSH2 0x151 JUMPI PUSH1 0x0 DUP1 REVERT JUMPDEST POP PUSH2 0x15A PUSH2 0x5AD JUMP JUMPDEST PUSH1 0x40 MLOAD PUSH2 0x167 SWAP2 SWAP1 PUSH2 0x2393 JUMP JUMPDEST PUSH1 0x40 MLOAD DUP1 SWAP2 SUB SWAP1 RETURN JUMPDEST CALLVALUE DUP1 ISZERO PUSH2 0x17C JUMPI PUSH1 0x0 DUP1 REVERT JUMPDEST POP PUSH2 0x185 PUSH2 0x5B5 JUMP JUMPDEST PUSH1 0x40 MLOAD PUSH2 0x192 SWAP2 SWAP1 PUSH2 0x21F1 JUMP JUMPDEST PUSH1 0x40 MLOAD DUP1 SWAP2 SUB SWAP1 RETURN JUMPDEST CALLVALUE DUP1 ISZERO PUSH2 0x1A7 JUMPI PUSH1 0x0 DUP1 REVERT JUMPDEST POP PUSH2 0x1C2 PUSH1 0x4 DUP1 CALLDATASIZE SUB DUP2 ADD SWAP1 PUSH2 0x1BD SWAP2 SWAP1 PUSH2 0x1DA8 JUMP JUMPDEST PUSH2 0x647 JUMP JUMPDEST PUSH1 0x40 MLOAD PUSH2 0x1CF SWAP2 SWAP1 PUSH2 0x21D6 JUMP JUMPDEST PUSH1 0x40 MLOAD DUP1 SWAP2 SUB SWAP1 RETURN JUMPDEST CALLVALUE DUP1 ISZERO PUSH2 0x1E4 JUMPI PUSH1 0x0 DUP1 REVERT JUMPDEST POP PUSH2 0x1ED PUSH2 0x66A JUMP JUMPDEST PUSH1 0x40 MLOAD PUSH2 0x1FA SWAP2 SWAP1 PUSH2 0x2393 JUMP JUMPDEST PUSH1 0x40 MLOAD DUP1 SWAP2 SUB SWAP1 RETURN JUMPDEST PUSH2 0x21D PUSH1 0x4 DUP1 CALLDATASIZE SUB DUP2 ADD SWAP1 PUSH2 0x218 SWAP2 SWAP1 PUSH2 0x1E6F JUMP JUMPDEST PUSH2 0x674 JUMP JUMPDEST STOP JUMPDEST CALLVALUE DUP1 ISZERO PUSH2 0x22B JUMPI PUSH1 0x0 DUP1 REVERT JUMPDEST POP PUSH2 0x246 PUSH1 0x4 DUP1 CALLDATASIZE SUB DUP2 ADD SWAP1 PUSH2 0x241 SWAP2 SWAP1 PUSH2 0x1D55 JUMP JUMPDEST PUSH2 0x682 JUMP JUMPDEST PUSH1 0x40 MLOAD PUSH2 0x253 SWAP2 SWAP1 PUSH2 0x21D6 JUMP JUMPDEST PUSH1 0x40 MLOAD DUP1 SWAP2 SUB SWAP1 RETURN JUMPDEST CALLVALUE DUP1 ISZERO PUSH2 0x268 JUMPI PUSH1 0x0 DUP1 REVERT JUMPDEST POP PUSH2 0x271 PUSH2 0x6B1 JUMP JUMPDEST PUSH1 0x40 MLOAD PUSH2 0x27E SWAP2 SWAP1 PUSH2 0x2400 JUMP JUMPDEST PUSH1 0x40 MLOAD DUP1 SWAP2 SUB SWAP1 RETURN JUMPDEST CALLVALUE DUP1 ISZERO PUSH2 0x293 JUMPI PUSH1 0x0 DUP1 REVERT JUMPDEST POP PUSH2 0x2AE PUSH1 0x4 DUP1 CALLDATASIZE SUB DUP2 ADD SWAP1 PUSH2 0x2A9 SWAP2 SWAP1 PUSH2 0x1DA8 JUMP JUMPDEST PUSH2 0x6BA JUMP JUMPDEST PUSH1 0x40 MLOAD PUSH2 0x2BB SWAP2 SWAP1 PUSH2 0x21D6 JUMP JUMPDEST PUSH1 0x40 MLOAD DUP1 SWAP2 SUB SWAP1 RETURN JUMPDEST PUSH2 0x2DE PUSH1 0x4 DUP1 CALLDATASIZE SUB DUP2 ADD SWAP1 PUSH2 0x2D9 SWAP2 SWAP1 PUSH2 0x1E15 JUMP JUMPDEST PUSH2 0x6F1 JUMP JUMPDEST PUSH1 0x40 MLOAD PUSH2 0x2EB SWAP2 SWAP1 PUSH2 0x2393 JUMP JUMPDEST PUSH1 0x40 MLOAD DUP1 SWAP2 SUB SWAP1 RETURN JUMPDEST CALLVALUE DUP1 ISZERO PUSH2 0x300 JUMPI PUSH1 0x0 DUP1 REVERT JUMPDEST POP PUSH2 0x309 PUSH2 0x931 JUMP JUMPDEST PUSH1 0x40 MLOAD PUSH2 0x316 SWAP2 SWAP1 PUSH2 0x2393 JUMP JUMPDEST PUSH1 0x40 MLOAD DUP1 SWAP2 SUB SWAP1 RETURN JUMPDEST CALLVALUE DUP1 ISZERO PUSH2 0x32B JUMPI PUSH1 0x0 DUP1 REVERT JUMPDEST POP PUSH2 0x346 PUSH1 0x4 DUP1 CALLDATASIZE SUB DUP2 ADD SWAP1 PUSH2 0x341 SWAP2 SWAP1 PUSH2 0x1CBB JUMP JUMPDEST PUSH2 0x9E3 JUMP JUMPDEST PUSH1 0x40 MLOAD PUSH2 0x353 SWAP2 SWAP1 PUSH2 0x2393 JUMP JUMPDEST PUSH1 0x40 MLOAD DUP1 SWAP2 SUB SWAP1 RETURN JUMPDEST CALLVALUE DUP1 ISZERO PUSH2 0x368 JUMPI PUSH1 0x0 DUP1 REVERT JUMPDEST POP PUSH2 0x383 PUSH1 0x4 DUP1 CALLDATASIZE SUB DUP2 ADD SWAP1 PUSH2 0x37E SWAP2 SWAP1 PUSH2 0x1E15 JUMP JUMPDEST PUSH2 0xA2B JUMP JUMPDEST PUSH1 0x40 MLOAD PUSH2 0x390 SWAP2 SWAP1 PUSH2 0x2393 JUMP JUMPDEST PUSH1 0x40 MLOAD DUP1 SWAP2 SUB SWAP1 RETURN JUMPDEST PUSH2 0x3B3 PUSH1 0x4 DUP1 CALLDATASIZE SUB DUP2 ADD SWAP1 PUSH2 0x3AE SWAP2 SWAP1 PUSH2 0x1EAF JUMP JUMPDEST PUSH2 0xA88 JUMP JUMPDEST STOP JUMPDEST CALLVALUE DUP1 ISZERO PUSH2 0x3C1 JUMPI PUSH1 0x0 DUP1 REVERT JUMPDEST POP PUSH2 0x3CA PUSH2 0xBDF JUMP JUMPDEST PUSH1 0x40 MLOAD PUSH2 0x3D7 SWAP2 SWAP1 PUSH2 0x21F1 JUMP JUMPDEST PUSH1 0x40 MLOAD DUP1 SWAP2 SUB SWAP1 RETURN JUMPDEST CALLVALUE DUP1 ISZERO PUSH2 0x3EC JUMPI PUSH1 0x0 DUP1 REVERT JUMPDEST POP PUSH2 0x3F5 PUSH2 0xC71 JUMP JUMPDEST PUSH1 0x40 MLOAD PUSH2 0x402 SWAP2 SWAP1 PUSH2 0x215B JUMP JUMPDEST PUSH1 0x40 MLOAD DUP1 SWAP2 SUB SWAP1 RETURN JUMPDEST CALLVALUE DUP1 ISZERO PUSH2 0x417 JUMPI PUSH1 0x0 DUP1 REVERT JUMPDEST POP PUSH2 0x432 PUSH1 0x4 DUP1 CALLDATASIZE SUB DUP2 ADD SWAP1 PUSH2 0x42D SWAP2 SWAP1 PUSH2 0x1E15 JUMP JUMPDEST PUSH2 0xC97 JUMP JUMPDEST PUSH1 0x40 MLOAD PUSH2 0x440 SWAP3 SWAP2 SWAP1 PUSH2 0x23D7 JUMP JUMPDEST PUSH1 0x40 MLOAD DUP1 SWAP2 SUB SWAP1 RETURN JUMPDEST CALLVALUE DUP1 ISZERO PUSH2 0x455 JUMPI PUSH1 0x0 DUP1 REVERT JUMPDEST POP PUSH2 0x45E PUSH2 0xE36 JUMP JUMPDEST PUSH1 0x40 MLOAD PUSH2 0x46B SWAP2 SWAP1 PUSH2 0x215B JUMP JUMPDEST PUSH1 0x40 MLOAD DUP1 SWAP2 SUB SWAP1 RETURN JUMPDEST CALLVALUE DUP1 ISZERO PUSH2 0x480 JUMPI PUSH1 0x0 DUP1 REVERT JUMPDEST POP PUSH2 0x49B PUSH1 0x4 DUP1 CALLDATASIZE SUB DUP2 ADD SWAP1 PUSH2 0x496 SWAP2 SWAP1 PUSH2 0x1DA8 JUMP JUMPDEST PUSH2 0xE5C JUMP JUMPDEST PUSH1 0x40 MLOAD PUSH2 0x4A8 SWAP2 SWAP1 PUSH2 0x21D6 JUMP JUMPDEST PUSH1 0x40 MLOAD DUP1 SWAP2 SUB SWAP1 RETURN JUMPDEST CALLVALUE DUP1 ISZERO PUSH2 0x4BD JUMPI PUSH1 0x0 DUP1 REVERT JUMPDEST POP PUSH2 0x4D8 PUSH1 0x4 DUP1 CALLDATASIZE SUB DUP2 ADD SWAP1 PUSH2 0x4D3 SWAP2 SWAP1 PUSH2 0x1DA8 JUMP JUMPDEST PUSH2 0xED3 JUMP JUMPDEST PUSH1 0x40 MLOAD PUSH2 0x4E5 SWAP2 SWAP1 PUSH2 0x21D6 JUMP JUMPDEST PUSH1 0x40 MLOAD DUP1 SWAP2 SUB SWAP1 RETURN JUMPDEST CALLVALUE DUP1 ISZERO PUSH2 0x4FA JUMPI PUSH1 0x0 DUP1 REVERT JUMPDEST POP PUSH2 0x515 PUSH1 0x4 DUP1 CALLDATASIZE SUB DUP2 ADD SWAP1 PUSH2 0x510 SWAP2 SWAP1 PUSH2 0x1E15 JUMP JUMPDEST PUSH2 0xEF6 JUMP JUMPDEST PUSH1 0x40 MLOAD PUSH2 0x522 SWAP2 SWAP1 PUSH2 0x2393 JUMP JUMPDEST PUSH1 0x40 MLOAD DUP1 SWAP2 SUB SWAP1 RETURN JUMPDEST CALLVALUE DUP1 ISZERO PUSH2 0x537 JUMPI PUSH1 0x0 DUP1 REVERT JUMPDEST POP PUSH2 0x552 PUSH1 0x4 DUP1 CALLDATASIZE SUB DUP2 ADD SWAP1 PUSH2 0x54D SWAP2 SWAP1 PUSH2 0x1D15 JUMP JUMPDEST PUSH2 0xF53 JUMP JUMPDEST PUSH1 0x40 MLOAD PUSH2 0x55F SWAP2 SWAP1 PUSH2 0x2393 JUMP JUMPDEST PUSH1 0x40 MLOAD DUP1 SWAP2 SUB SWAP1 RETURN JUMPDEST CALLVALUE DUP1 ISZERO PUSH2 0x574 JUMPI PUSH1 0x0 DUP1 REVERT JUMPDEST POP PUSH2 0x58F PUSH1 0x4 DUP1 CALLDATASIZE SUB DUP2 ADD SWAP1 PUSH2 0x58A SWAP2 SWAP1 PUSH2 0x1EEF JUMP JUMPDEST PUSH2 0xFDA JUMP JUMPDEST STOP JUMPDEST PUSH2 0x5AB PUSH1 0x4 DUP1 CALLDATASIZE SUB DUP2 ADD SWAP1 PUSH2 0x5A6 SWAP2 SWAP1 PUSH2 0x1E15 JUMP JUMPDEST PUSH2 0x1270 JUMP JUMPDEST STOP JUMPDEST PUSH1 0x0 SELFBALANCE SWAP1 POP SWAP1 JUMP JUMPDEST PUSH1 0x60 PUSH1 0x3 DUP1 SLOAD PUSH2 0x5C4 SWAP1 PUSH2 0x25D4 JUMP JUMPDEST DUP1 PUSH1 0x1F ADD PUSH1 0x20 DUP1 SWAP2 DIV MUL PUSH1 0x20 ADD PUSH1 0x40 MLOAD SWAP1 DUP2 ADD PUSH1 0x40 MSTORE DUP1 SWAP3 SWAP2 SWAP1 DUP2 DUP2 MSTORE PUSH1 0x20 ADD DUP3 DUP1 SLOAD PUSH2 0x5F0 SWAP1 PUSH2 0x25D4 JUMP JUMPDEST DUP1 ISZERO PUSH2 0x63D JUMPI DUP1 PUSH1 0x1F LT PUSH2 0x612 JUMPI PUSH2 0x100 DUP1 DUP4 SLOAD DIV MUL DUP4 MSTORE SWAP2 PUSH1 0x20 ADD SWAP2 PUSH2 0x63D JUMP JUMPDEST DUP3 ADD SWAP2 SWAP1 PUSH1 0x0 MSTORE PUSH1 0x20 PUSH1 0x0 KECCAK256 SWAP1 JUMPDEST DUP2 SLOAD DUP2 MSTORE SWAP1 PUSH1 0x1 ADD SWAP1 PUSH1 0x20 ADD DUP1 DUP4 GT PUSH2 0x620 JUMPI DUP3 SWAP1 SUB PUSH1 0x1F AND DUP3 ADD SWAP2 JUMPDEST POP POP POP POP POP SWAP1 POP SWAP1 JUMP JUMPDEST PUSH1 0x0 DUP1 PUSH2 0x652 PUSH2 0x127D JUMP JUMPDEST SWAP1 POP PUSH2 0x65F DUP2 DUP6 DUP6 PUSH2 0x1285 JUMP JUMPDEST PUSH1 0x1 SWAP2 POP POP SWAP3 SWAP2 POP POP JUMP JUMPDEST PUSH1 0x0 PUSH1 0x2 SLOAD SWAP1 POP SWAP1 JUMP JUMPDEST PUSH2 0x67E DUP3 DUP3 PUSH2 0x1450 JUMP JUMPDEST POP POP JUMP JUMPDEST PUSH1 0x0 DUP1 PUSH2 0x68D PUSH2 0x127D JUMP JUMPDEST SWAP1 POP PUSH2 0x69A DUP6 DUP3 DUP6 PUSH2 0x1569 JUMP JUMPDEST PUSH2 0x6A5 DUP6 DUP6 DUP6 PUSH2 0x15F5 JUMP JUMPDEST PUSH1 0x1 SWAP2 POP POP SWAP4 SWAP3 POP POP POP JUMP JUMPDEST PUSH1 0x0 PUSH1 0x12 SWAP1 POP SWAP1 JUMP JUMPDEST PUSH1 0x0 DUP1 PUSH2 0x6C5 PUSH2 0x127D JUMP JUMPDEST SWAP1 POP PUSH2 0x6E6 DUP2 DUP6 DUP6 PUSH2 0x6D7 DUP6 DUP10 PUSH2 0xF53 JUMP JUMPDEST PUSH2 0x6E1 SWAP2 SWAP1 PUSH2 0x2437 JUMP JUMPDEST PUSH2 0x1285 JUMP JUMPDEST PUSH1 0x1 SWAP2 POP POP SWAP3 SWAP2 POP POP JUMP JUMPDEST PUSH1 0x0 DUP1 PUSH2 0x6FC PUSH2 0x931 JUMP JUMPDEST EQ ISZERO PUSH2 0x7CC JUMPI PUSH1 0x5 PUSH1 0x0 SWAP1 SLOAD SWAP1 PUSH2 0x100 EXP SWAP1 DIV PUSH20 0xFFFFFFFFFFFFFFFFFFFFFFFFFFFFFFFFFFFFFFFF AND PUSH20 0xFFFFFFFFFFFFFFFFFFFFFFFFFFFFFFFFFFFFFFFF AND PUSH4 0x23B872DD CALLER ADDRESS DUP6 PUSH1 0x40 MLOAD DUP5 PUSH4 0xFFFFFFFF AND PUSH1 0xE0 SHL DUP2 MSTORE PUSH1 0x4 ADD PUSH2 0x761 SWAP4 SWAP3 SWAP2 SWAP1 PUSH2 0x2176 JUMP JUMPDEST PUSH1 0x20 PUSH1 0x40 MLOAD DUP1 DUP4 SUB DUP2 PUSH1 0x0 DUP8 DUP1 EXTCODESIZE ISZERO DUP1 ISZERO PUSH2 0x77B JUMPI PUSH1 0x0 DUP1 REVERT JUMPDEST POP GAS CALL ISZERO DUP1 ISZERO PUSH2 0x78F JUMPI RETURNDATASIZE PUSH1 0x0 DUP1 RETURNDATACOPY RETURNDATASIZE PUSH1 0x0 REVERT JUMPDEST POP POP POP POP PUSH1 0x40 MLOAD RETURNDATASIZE PUSH1 0x1F NOT PUSH1 0x1F DUP3 ADD AND DUP3 ADD DUP1 PUSH1 0x40 MSTORE POP DUP2 ADD SWAP1 PUSH2 0x7B3 SWAP2 SWAP1 PUSH2 0x1DE8 JUMP JUMPDEST POP PUSH1 0x0 SELFBALANCE SWAP1 POP PUSH2 0x7C3 CALLER DUP3 PUSH2 0x1876 JUMP JUMPDEST DUP1 SWAP2 POP POP PUSH2 0x92C JUMP JUMPDEST PUSH1 0x0 CALLVALUE SELFBALANCE PUSH2 0x7DA SWAP2 SWAP1 PUSH2 0x2518 JUMP JUMPDEST SWAP1 POP PUSH1 0x0 PUSH2 0x7E6 PUSH2 0x931 JUMP JUMPDEST SWAP1 POP PUSH1 0x0 DUP3 DUP3 CALLVALUE PUSH2 0x7F7 SWAP2 SWAP1 PUSH2 0x24BE JUMP JUMPDEST PUSH2 0x801 SWAP2 SWAP1 PUSH2 0x248D JUMP JUMPDEST SWAP1 POP DUP1 DUP6 LT ISZERO PUSH2 0x846 JUMPI PUSH1 0x40 MLOAD PUSH32 0x8C379A000000000000000000000000000000000000000000000000000000000 DUP2 MSTORE PUSH1 0x4 ADD PUSH2 0x83D SWAP1 PUSH2 0x2233 JUMP JUMPDEST PUSH1 0x40 MLOAD DUP1 SWAP2 SUB SWAP1 REVERT JUMPDEST PUSH1 0x5 PUSH1 0x0 SWAP1 SLOAD SWAP1 PUSH2 0x100 EXP SWAP1 DIV PUSH20 0xFFFFFFFFFFFFFFFFFFFFFFFFFFFFFFFFFFFFFFFF AND PUSH20 0xFFFFFFFFFFFFFFFFFFFFFFFFFFFFFFFFFFFFFFFF AND PUSH4 0x23B872DD CALLER ADDRESS DUP5 PUSH1 0x40 MLOAD DUP5 PUSH4 0xFFFFFFFF AND PUSH1 0xE0 SHL DUP2 MSTORE PUSH1 0x4 ADD PUSH2 0x8A5 SWAP4 SWAP3 SWAP2 SWAP1 PUSH2 0x2176 JUMP JUMPDEST PUSH1 0x20 PUSH1 0x40 MLOAD DUP1 DUP4 SUB DUP2 PUSH1 0x0 DUP8 DUP1 EXTCODESIZE ISZERO DUP1 ISZERO PUSH2 0x8BF JUMPI PUSH1 0x0 DUP1 REVERT JUMPDEST POP GAS CALL ISZERO DUP1 ISZERO PUSH2 0x8D3 JUMPI RETURNDATASIZE PUSH1 0x0 DUP1 RETURNDATACOPY RETURNDATASIZE PUSH1 0x0 REVERT JUMPDEST POP POP POP POP PUSH1 0x40 MLOAD RETURNDATASIZE PUSH1 0x1F NOT PUSH1 0x1F DUP3 ADD AND DUP3 ADD DUP1 PUSH1 0x40 MSTORE POP DUP2 ADD SWAP1 PUSH2 0x8F7 SWAP2 SWAP1 PUSH2 0x1DE8 JUMP JUMPDEST POP PUSH1 0x0 DUP4 PUSH2 0x903 PUSH2 0x66A JUMP JUMPDEST CALLVALUE PUSH2 0x90E SWAP2 SWAP1 PUSH2 0x24BE JUMP JUMPDEST PUSH2 0x918 SWAP2 SWAP1 PUSH2 0x248D JUMP JUMPDEST SWAP1 POP PUSH2 0x924 CALLER DUP3 PUSH2 0x1876 JUMP JUMPDEST DUP1 SWAP5 POP POP POP POP POP JUMPDEST SWAP2 SWAP1 POP JUMP JUMPDEST PUSH1 0x0 PUSH1 0x5 PUSH1 0x0 SWAP1 SLOAD SWAP1 PUSH2 0x100 EXP SWAP1 DIV PUSH20 0xFFFFFFFFFFFFFFFFFFFFFFFFFFFFFFFFFFFFFFFF AND PUSH20 0xFFFFFFFFFFFFFFFFFFFFFFFFFFFFFFFFFFFFFFFF AND PUSH4 0x70A08231 ADDRESS PUSH1 0x40 MLOAD DUP3 PUSH4 0xFFFFFFFF AND PUSH1 0xE0 SHL DUP2 MSTORE PUSH1 0x4 ADD PUSH2 0x98E SWAP2 SWAP1 PUSH2 0x215B JUMP JUMPDEST PUSH1 0x20 PUSH1 0x40 MLOAD DUP1 DUP4 SUB DUP2 DUP7 DUP1 EXTCODESIZE ISZERO DUP1 ISZERO PUSH2 0x9A6 JUMPI PUSH1 0x0 DUP1 REVERT JUMPDEST POP GAS STATICCALL ISZERO DUP1 ISZERO PUSH2 0x9BA JUMPI RETURNDATASIZE PUSH1 0x0 DUP1 RETURNDATACOPY RETURNDATASIZE PUSH1 0x0 REVERT JUMPDEST POP POP POP POP PUSH1 0x40 MLOAD RETURNDATASIZE PUSH1 0x1F NOT PUSH1 0x1F DUP3 ADD AND DUP3 ADD DUP1 PUSH1 0x40 MSTORE POP DUP2 ADD SWAP1 PUSH2 0x9DE SWAP2 SWAP1 PUSH2 0x1E42 JUMP JUMPDEST SWAP1 POP SWAP1 JUMP JUMPDEST PUSH1 0x0 DUP1 PUSH1 0x0 DUP4 PUSH20 0xFFFFFFFFFFFFFFFFFFFFFFFFFFFFFFFFFFFFFFFF AND PUSH20 0xFFFFFFFFFFFFFFFFFFFFFFFFFFFFFFFFFFFFFFFF AND DUP2 MSTORE PUSH1 0x20 ADD SWAP1 DUP2 MSTORE PUSH1 0x20 ADD PUSH1 0x0 KECCAK256 SLOAD SWAP1 POP SWAP2 SWAP1 POP JUMP JUMPDEST PUSH1 0x0 DUP1 DUP3 GT PUSH2 0xA6F JUMPI PUSH1 0x40 MLOAD PUSH32 0x8C379A000000000000000000000000000000000000000000000000000000000 DUP2 MSTORE PUSH1 0x4 ADD PUSH2 0xA66 SWAP1 PUSH2 0x2233 JUMP JUMPDEST PUSH1 0x40 MLOAD DUP1 SWAP2 SUB SWAP1 REVERT JUMPDEST PUSH2 0xA81 DUP3 PUSH2 0xA7B PUSH2 0x931 JUMP JUMPDEST SELFBALANCE PUSH2 0x19D6 JUMP JUMPDEST SWAP1 POP SWAP2 SWAP1 POP JUMP JUMPDEST PUSH1 0x0 PUSH2 0xA9C DUP4 PUSH2 0xA96 PUSH2 0x931 JUMP JUMPDEST SELFBALANCE PUSH2 0x19D6 JUMP JUMPDEST SWAP1 POP DUP2 DUP2 LT ISZERO PUSH2 0xAE1 JUMPI PUSH1 0x40 MLOAD PUSH32 0x8C379A000000000000000000000000000000000000000000000000000000000 DUP2 MSTORE PUSH1 0x4 ADD PUSH2 0xAD8 SWAP1 PUSH2 0x2233 JUMP JUMPDEST PUSH1 0x40 MLOAD DUP1 SWAP2 SUB SWAP1 REVERT JUMPDEST PUSH1 0x5 PUSH1 0x0 SWAP1 SLOAD SWAP1 PUSH2 0x100 EXP SWAP1 DIV PUSH20 0xFFFFFFFFFFFFFFFFFFFFFFFFFFFFFFFFFFFFFFFF AND PUSH20 0xFFFFFFFFFFFFFFFFFFFFFFFFFFFFFFFFFFFFFFFF AND PUSH4 0x23B872DD CALLER ADDRESS DUP7 PUSH1 0x40 MLOAD DUP5 PUSH4 0xFFFFFFFF AND PUSH1 0xE0 SHL DUP2 MSTORE PUSH1 0x4 ADD PUSH2 0xB40 SWAP4 SWAP3 SWAP2 SWAP1 PUSH2 0x2176 JUMP JUMPDEST PUSH1 0x20 PUSH1 0x40 MLOAD DUP1 DUP4 SUB DUP2 PUSH1 0x0 DUP8 DUP1 EXTCODESIZE ISZERO DUP1 ISZERO PUSH2 0xB5A JUMPI PUSH1 0x0 DUP1 REVERT JUMPDEST POP GAS CALL ISZERO DUP1 ISZERO PUSH2 0xB6E JUMPI RETURNDATASIZE PUSH1 0x0 DUP1 RETURNDATACOPY RETURNDATASIZE PUSH1 0x0 REVERT JUMPDEST POP POP POP POP PUSH1 0x40 MLOAD RETURNDATASIZE PUSH1 0x1F NOT PUSH1 0x1F DUP3 ADD AND DUP3 ADD DUP1 PUSH1 0x40 MSTORE POP DUP2 ADD SWAP1 PUSH2 0xB92 SWAP2 SWAP1 PUSH2 0x1DE8 JUMP JUMPDEST POP CALLER PUSH20 0xFFFFFFFFFFFFFFFFFFFFFFFFFFFFFFFFFFFFFFFF AND PUSH2 0x8FC DUP3 SWAP1 DUP2 ISZERO MUL SWAP1 PUSH1 0x40 MLOAD PUSH1 0x0 PUSH1 0x40 MLOAD DUP1 DUP4 SUB DUP2 DUP6 DUP9 DUP9 CALL SWAP4 POP POP POP POP ISZERO DUP1 ISZERO PUSH2 0xBD9 JUMPI RETURNDATASIZE PUSH1 0x0 DUP1 RETURNDATACOPY RETURNDATASIZE PUSH1 0x0 REVERT JUMPDEST POP POP POP POP JUMP JUMPDEST PUSH1 0x60 PUSH1 0x4 DUP1 SLOAD PUSH2 0xBEE SWAP1 PUSH2 0x25D4 JUMP JUMPDEST DUP1 PUSH1 0x1F ADD PUSH1 0x20 DUP1 SWAP2 DIV MUL PUSH1 0x20 ADD PUSH1 0x40 MLOAD SWAP1 DUP2 ADD PUSH1 0x40 MSTORE DUP1 SWAP3 SWAP2 SWAP1 DUP2 DUP2 MSTORE PUSH1 0x20 ADD DUP3 DUP1 SLOAD PUSH2 0xC1A SWAP1 PUSH2 0x25D4 JUMP JUMPDEST DUP1 ISZERO PUSH2 0xC67 JUMPI DUP1 PUSH1 0x1F LT PUSH2 0xC3C JUMPI PUSH2 0x100 DUP1 DUP4 SLOAD DIV MUL DUP4 MSTORE SWAP2 PUSH1 0x20 ADD SWAP2 PUSH2 0xC67 JUMP JUMPDEST DUP3 ADD SWAP2 SWAP1 PUSH1 0x0 MSTORE PUSH1 0x20 PUSH1 0x0 KECCAK256 SWAP1 JUMPDEST DUP2 SLOAD DUP2 MSTORE SWAP1 PUSH1 0x1 ADD SWAP1 PUSH1 0x20 ADD DUP1 DUP4 GT PUSH2 0xC4A JUMPI DUP3 SWAP1 SUB PUSH1 0x1F AND DUP3 ADD SWAP2 JUMPDEST POP POP POP POP POP SWAP1 POP SWAP1 JUMP JUMPDEST PUSH1 0x6 PUSH1 0x0 SWAP1 SLOAD SWAP1 PUSH2 0x100 EXP SWAP1 DIV PUSH20 0xFFFFFFFFFFFFFFFFFFFFFFFFFFFFFFFFFFFFFFFF AND DUP2 JUMP JUMPDEST PUSH1 0x0 DUP1 PUSH1 0x0 DUP4 GT PUSH2 0xCDD JUMPI PUSH1 0x40 MLOAD PUSH32 0x8C379A000000000000000000000000000000000000000000000000000000000 DUP2 MSTORE PUSH1 0x4 ADD PUSH2 0xCD4 SWAP1 PUSH2 0x2233 JUMP JUMPDEST PUSH1 0x40 MLOAD DUP1 SWAP2 SUB SWAP1 REVERT JUMPDEST PUSH1 0x0 PUSH2 0xCE7 PUSH2 0x66A JUMP JUMPDEST DUP5 SELFBALANCE PUSH2 0xCF3 SWAP2 SWAP1 PUSH2 0x24BE JUMP JUMPDEST PUSH2 0xCFD SWAP2 SWAP1 PUSH2 0x248D JUMP JUMPDEST SWAP1 POP PUSH1 0x0 PUSH2 0xD09 PUSH2 0x66A JUMP JUMPDEST DUP6 PUSH2 0xD12 PUSH2 0x931 JUMP JUMPDEST PUSH2 0xD1C SWAP2 SWAP1 PUSH2 0x24BE JUMP JUMPDEST PUSH2 0xD26 SWAP2 SWAP1 PUSH2 0x248D JUMP JUMPDEST SWAP1 POP PUSH2 0xD32 CALLER DUP7 PUSH2 0x1A71 JUMP JUMPDEST CALLER PUSH20 0xFFFFFFFFFFFFFFFFFFFFFFFFFFFFFFFFFFFFFFFF AND PUSH2 0x8FC DUP4 SWAP1 DUP2 ISZERO MUL SWAP1 PUSH1 0x40 MLOAD PUSH1 0x0 PUSH1 0x40 MLOAD DUP1 DUP4 SUB DUP2 DUP6 DUP9 DUP9 CALL SWAP4 POP POP POP POP ISZERO DUP1 ISZERO PUSH2 0xD78 JUMPI RETURNDATASIZE PUSH1 0x0 DUP1 RETURNDATACOPY RETURNDATASIZE PUSH1 0x0 REVERT JUMPDEST POP PUSH1 0x5 PUSH1 0x0 SWAP1 SLOAD SWAP1 PUSH2 0x100 EXP SWAP1 DIV PUSH20 0xFFFFFFFFFFFFFFFFFFFFFFFFFFFFFFFFFFFFFFFF AND PUSH20 0xFFFFFFFFFFFFFFFFFFFFFFFFFFFFFFFFFFFFFFFF AND PUSH4 0xA9059CBB CALLER DUP4 PUSH1 0x40 MLOAD DUP4 PUSH4 0xFFFFFFFF AND PUSH1 0xE0 SHL DUP2 MSTORE PUSH1 0x4 ADD PUSH2 0xDD6 SWAP3 SWAP2 SWAP1 PUSH2 0x21AD JUMP JUMPDEST PUSH1 0x20 PUSH1 0x40 MLOAD DUP1 DUP4 SUB DUP2 PUSH1 0x0 DUP8 DUP1 EXTCODESIZE ISZERO DUP1 ISZERO PUSH2 0xDF0 JUMPI PUSH1 0x0 DUP1 REVERT JUMPDEST POP GAS CALL ISZERO DUP1 ISZERO PUSH2 0xE04 JUMPI RETURNDATASIZE PUSH1 0x0 DUP1 RETURNDATACOPY RETURNDATASIZE PUSH1 0x0 REVERT JUMPDEST POP POP POP POP PUSH1 0x40 MLOAD RETURNDATASIZE PUSH1 0x1F NOT PUSH1 0x1F DUP3 ADD AND DUP3 ADD DUP1 PUSH1 0x40 MSTORE POP DUP2 ADD SWAP1 PUSH2 0xE28 SWAP2 SWAP1 PUSH2 0x1DE8 JUMP JUMPDEST POP DUP2 DUP2 SWAP4 POP SWAP4 POP POP POP SWAP2 POP SWAP2 JUMP JUMPDEST PUSH1 0x5 PUSH1 0x0 SWAP1 SLOAD SWAP1 PUSH2 0x100 EXP SWAP1 DIV PUSH20 0xFFFFFFFFFFFFFFFFFFFFFFFFFFFFFFFFFFFFFFFF AND DUP2 JUMP JUMPDEST PUSH1 0x0 DUP1 PUSH2 0xE67 PUSH2 0x127D JUMP JUMPDEST SWAP1 POP PUSH1 0x0 PUSH2 0xE75 DUP3 DUP7 PUSH2 0xF53 JUMP JUMPDEST SWAP1 POP DUP4 DUP2 LT ISZERO PUSH2 0xEBA JUMPI PUSH1 0x40 MLOAD PUSH32 0x8C379A000000000000000000000000000000000000000000000000000000000 DUP2 MSTORE PUSH1 0x4 ADD PUSH2 0xEB1 SWAP1 PUSH2 0x2353 JUMP JUMPDEST PUSH1 0x40 MLOAD DUP1 SWAP2 SUB SWAP1 REVERT JUMPDEST PUSH2 0xEC7 DUP3 DUP7 DUP7 DUP5 SUB PUSH2 0x1285 JUMP JUMPDEST PUSH1 0x1 SWAP3 POP POP POP SWAP3 SWAP2 POP POP JUMP JUMPDEST PUSH1 0x0 DUP1 PUSH2 0xEDE PUSH2 0x127D JUMP JUMPDEST SWAP1 POP PUSH2 0xEEB DUP2 DUP6 DUP6 PUSH2 0x15F5 JUMP JUMPDEST PUSH1 0x1 SWAP2 POP POP SWAP3 SWAP2 POP POP JUMP JUMPDEST PUSH1 0x0 DUP1 DUP3 GT PUSH2 0xF3A JUMPI PUSH1 0x40 MLOAD PUSH32 0x8C379A000000000000000000000000000000000000000000000000000000000 DUP2 MSTORE PUSH1 0x4 ADD PUSH2 0xF31 SWAP1 PUSH2 0x2233 JUMP JUMPDEST PUSH1 0x40 MLOAD DUP1 SWAP2 SUB SWAP1 REVERT JUMPDEST PUSH2 0xF4C DUP3 SELFBALANCE PUSH2 0xF47 PUSH2 0x931 JUMP JUMPDEST PUSH2 0x19D6 JUMP JUMPDEST SWAP1 POP SWAP2 SWAP1 POP JUMP JUMPDEST PUSH1 0x0 PUSH1 0x1 PUSH1 0x0 DUP5 PUSH20 0xFFFFFFFFFFFFFFFFFFFFFFFFFFFFFFFFFFFFFFFF AND PUSH20 0xFFFFFFFFFFFFFFFFFFFFFFFFFFFFFFFFFFFFFFFF AND DUP2 MSTORE PUSH1 0x20 ADD SWAP1 DUP2 MSTORE PUSH1 0x20 ADD PUSH1 0x0 KECCAK256 PUSH1 0x0 DUP4 PUSH20 0xFFFFFFFFFFFFFFFFFFFFFFFFFFFFFFFFFFFFFFFF AND PUSH20 0xFFFFFFFFFFFFFFFFFFFFFFFFFFFFFFFFFFFFFFFF AND DUP2 MSTORE PUSH1 0x20 ADD SWAP1 DUP2 MSTORE PUSH1 0x20 ADD PUSH1 0x0 KECCAK256 SLOAD SWAP1 POP SWAP3 SWAP2 POP POP JUMP JUMPDEST PUSH1 0x0 PUSH1 0x6 PUSH1 0x0 SWAP1 SLOAD SWAP1 PUSH2 0x100 EXP SWAP1 DIV PUSH20 0xFFFFFFFFFFFFFFFFFFFFFFFFFFFFFFFFFFFFFFFF AND PUSH20 0xFFFFFFFFFFFFFFFFFFFFFFFFFFFFFFFFFFFFFFFF AND PUSH4 0x6F2BF62 DUP4 PUSH1 0x40 MLOAD DUP3 PUSH4 0xFFFFFFFF AND PUSH1 0xE0 SHL DUP2 MSTORE PUSH1 0x4 ADD PUSH2 0x1037 SWAP2 SWAP1 PUSH2 0x215B JUMP JUMPDEST PUSH1 0x20 PUSH1 0x40 MLOAD DUP1 DUP4 SUB DUP2 PUSH1 0x0 DUP8 DUP1 EXTCODESIZE ISZERO DUP1 ISZERO PUSH2 0x1051 JUMPI PUSH1 0x0 DUP1 REVERT JUMPDEST POP GAS CALL ISZERO DUP1 ISZERO PUSH2 0x1065 JUMPI RETURNDATASIZE PUSH1 0x0 DUP1 RETURNDATACOPY RETURNDATASIZE PUSH1 0x0 REVERT JUMPDEST POP POP POP POP PUSH1 0x40 MLOAD RETURNDATASIZE PUSH1 0x1F NOT PUSH1 0x1F DUP3 ADD AND DUP3 ADD DUP1 PUSH1 0x40 MSTORE POP DUP2 ADD SWAP1 PUSH2 0x1089 SWAP2 SWAP1 PUSH2 0x1CE8 JUMP JUMPDEST SWAP1 POP ADDRESS PUSH20 0xFFFFFFFFFFFFFFFFFFFFFFFFFFFFFFFFFFFFFFFF AND DUP2 PUSH20 0xFFFFFFFFFFFFFFFFFFFFFFFFFFFFFFFFFFFFFFFF AND EQ ISZERO DUP1 ISZERO PUSH2 0x10F4 JUMPI POP PUSH1 0x0 PUSH20 0xFFFFFFFFFFFFFFFFFFFFFFFFFFFFFFFFFFFFFFFF AND DUP2 PUSH20 0xFFFFFFFFFFFFFFFFFFFFFFFFFFFFFFFFFFFFFFFF AND EQ ISZERO JUMPDEST PUSH2 0x1133 JUMPI PUSH1 0x40 MLOAD PUSH32 0x8C379A000000000000000000000000000000000000000000000000000000000 DUP2 MSTORE PUSH1 0x4 ADD PUSH2 0x112A SWAP1 PUSH2 0x22D3 JUMP JUMPDEST PUSH1 0x40 MLOAD DUP1 SWAP2 SUB SWAP1 REVERT JUMPDEST PUSH1 0x0 PUSH2 0x1147 DUP6 PUSH2 0x1141 PUSH2 0x931 JUMP JUMPDEST SELFBALANCE PUSH2 0x19D6 JUMP JUMPDEST SWAP1 POP PUSH1 0x5 PUSH1 0x0 SWAP1 SLOAD SWAP1 PUSH2 0x100 EXP SWAP1 DIV PUSH20 0xFFFFFFFFFFFFFFFFFFFFFFFFFFFFFFFFFFFFFFFF AND PUSH20 0xFFFFFFFFFFFFFFFFFFFFFFFFFFFFFFFFFFFFFFFF AND PUSH4 0x23B872DD CALLER ADDRESS DUP9 PUSH1 0x40 MLOAD DUP5 PUSH4 0xFFFFFFFF AND PUSH1 0xE0 SHL DUP2 MSTORE PUSH1 0x4 ADD PUSH2 0x11A8 SWAP4 SWAP3 SWAP2 SWAP1 PUSH2 0x2176 JUMP JUMPDEST PUSH1 0x20 PUSH1 0x40 MLOAD DUP1 DUP4 SUB DUP2 PUSH1 0x0 DUP8 DUP1 EXTCODESIZE ISZERO DUP1 ISZERO PUSH2 0x11C2 JUMPI PUSH1 0x0 DUP1 REVERT JUMPDEST POP GAS CALL ISZERO DUP1 ISZERO PUSH2 0x11D6 JUMPI RETURNDATASIZE PUSH1 0x0 DUP1 RETURNDATACOPY RETURNDATASIZE PUSH1 0x0 REVERT JUMPDEST POP POP POP POP PUSH1 0x40 MLOAD RETURNDATASIZE PUSH1 0x1F NOT PUSH1 0x1F DUP3 ADD AND DUP3 ADD DUP1 PUSH1 0x40 MSTORE POP DUP2 ADD SWAP1 PUSH2 0x11FA SWAP2 SWAP1 PUSH2 0x1DE8 JUMP JUMPDEST POP DUP2 PUSH20 0xFFFFFFFFFFFFFFFFFFFFFFFFFFFFFFFFFFFFFFFF AND PUSH4 0x237E22D0 DUP3 DUP7 CALLER PUSH1 0x40 MLOAD DUP5 PUSH4 0xFFFFFFFF AND PUSH1 0xE0 SHL DUP2 MSTORE PUSH1 0x4 ADD PUSH2 0x1237 SWAP3 SWAP2 SWAP1 PUSH2 0x23AE JUMP JUMPDEST PUSH1 0x0 PUSH1 0x40 MLOAD DUP1 DUP4 SUB DUP2 DUP6 DUP9 DUP1 EXTCODESIZE ISZERO DUP1 ISZERO PUSH2 0x1250 JUMPI PUSH1 0x0 DUP1 REVERT JUMPDEST POP GAS CALL ISZERO DUP1 ISZERO PUSH2 0x1264 JUMPI RETURNDATASIZE PUSH1 0x0 DUP1 RETURNDATACOPY RETURNDATASIZE PUSH1 0x0 REVERT JUMPDEST POP POP POP POP POP POP POP POP POP POP JUMP JUMPDEST PUSH2 0x127A DUP2 CALLER PUSH2 0x1450 JUMP JUMPDEST POP JUMP JUMPDEST PUSH1 0x0 CALLER SWAP1 POP SWAP1 JUMP JUMPDEST PUSH1 0x0 PUSH20 0xFFFFFFFFFFFFFFFFFFFFFFFFFFFFFFFFFFFFFFFF AND DUP4 PUSH20 0xFFFFFFFFFFFFFFFFFFFFFFFFFFFFFFFFFFFFFFFF AND EQ ISZERO PUSH2 0x12F5 JUMPI PUSH1 0x40 MLOAD PUSH32 0x8C379A000000000000000000000000000000000000000000000000000000000 DUP2 MSTORE PUSH1 0x4 ADD PUSH2 0x12EC SWAP1 PUSH2 0x2333 JUMP JUMPDEST PUSH1 0x40 MLOAD DUP1 SWAP2 SUB SWAP1 REVERT JUMPDEST PUSH1 0x0 PUSH20 0xFFFFFFFFFFFFFFFFFFFFFFFFFFFFFFFFFFFFFFFF AND DUP3 PUSH20 0xFFFFFFFFFFFFFFFFFFFFFFFFFFFFFFFFFFFFFFFF AND EQ ISZERO PUSH2 0x1365 JUMPI PUSH1 0x40 MLOAD PUSH32 0x8C379A000000000000000000000000000000000000000000000000000000000 DUP2 MSTORE PUSH1 0x4 ADD PUSH2 0x135C SWAP1 PUSH2 0x2273 JUMP JUMPDEST PUSH1 0x40 MLOAD DUP1 SWAP2 SUB SWAP1 REVERT JUMPDEST DUP1 PUSH1 0x1 PUSH1 0x0 DUP6 PUSH20 0xFFFFFFFFFFFFFFFFFFFFFFFFFFFFFFFFFFFFFFFF AND PUSH20 0xFFFFFFFFFFFFFFFFFFFFFFFFFFFFFFFFFFFFFFFF AND DUP2 MSTORE PUSH1 0x20 ADD SWAP1 DUP2 MSTORE PUSH1 0x20 ADD PUSH1 0x0 KECCAK256 PUSH1 0x0 DUP5 PUSH20 0xFFFFFFFFFFFFFFFFFFFFFFFFFFFFFFFFFFFFFFFF AND PUSH20 0xFFFFFFFFFFFFFFFFFFFFFFFFFFFFFFFFFFFFFFFF AND DUP2 MSTORE PUSH1 0x20 ADD SWAP1 DUP2 MSTORE PUSH1 0x20 ADD PUSH1 0x0 KECCAK256 DUP2 SWAP1 SSTORE POP DUP2 PUSH20 0xFFFFFFFFFFFFFFFFFFFFFFFFFFFFFFFFFFFFFFFF AND DUP4 PUSH20 0xFFFFFFFFFFFFFFFFFFFFFFFFFFFFFFFFFFFFFFFF AND PUSH32 0x8C5BE1E5EBEC7D5BD14F71427D1E84F3DD0314C0F7B2291E5B200AC8C7C3B925 DUP4 PUSH1 0x40 MLOAD PUSH2 0x1443 SWAP2 SWAP1 PUSH2 0x2393 JUMP JUMPDEST PUSH1 0x40 MLOAD DUP1 SWAP2 SUB SWAP1 LOG3 POP POP POP JUMP JUMPDEST PUSH1 0x0 PUSH2 0x146F CALLVALUE CALLVALUE SELFBALANCE PUSH2 0x1462 SWAP2 SWAP1 PUSH2 0x2518 JUMP JUMPDEST PUSH2 0x146A PUSH2 0x931 JUMP JUMPDEST PUSH2 0x19D6 JUMP JUMPDEST SWAP1 POP DUP3 DUP2 LT ISZERO PUSH2 0x14B4 JUMPI PUSH1 0x40 MLOAD PUSH32 0x8C379A000000000000000000000000000000000000000000000000000000000 DUP2 MSTORE PUSH1 0x4 ADD PUSH2 0x14AB SWAP1 PUSH2 0x2233 JUMP JUMPDEST PUSH1 0x40 MLOAD DUP1 SWAP2 SUB SWAP1 REVERT JUMPDEST PUSH1 0x5 PUSH1 0x0 SWAP1 SLOAD SWAP1 PUSH2 0x100 EXP SWAP1 DIV PUSH20 0xFFFFFFFFFFFFFFFFFFFFFFFFFFFFFFFFFFFFFFFF AND PUSH20 0xFFFFFFFFFFFFFFFFFFFFFFFFFFFFFFFFFFFFFFFF AND PUSH4 0xA9059CBB DUP4 DUP4 PUSH1 0x40 MLOAD DUP4 PUSH4 0xFFFFFFFF AND PUSH1 0xE0 SHL DUP2 MSTORE PUSH1 0x4 ADD PUSH2 0x1511 SWAP3 SWAP2 SWAP1 PUSH2 0x21AD JUMP JUMPDEST PUSH1 0x20 PUSH1 0x40 MLOAD DUP1 DUP4 SUB DUP2 PUSH1 0x0 DUP8 DUP1 EXTCODESIZE ISZERO DUP1 ISZERO PUSH2 0x152B JUMPI PUSH1 0x0 DUP1 REVERT JUMPDEST POP GAS CALL ISZERO DUP1 ISZERO PUSH2 0x153F JUMPI RETURNDATASIZE PUSH1 0x0 DUP1 RETURNDATACOPY RETURNDATASIZE PUSH1 0x0 REVERT JUMPDEST POP POP POP POP PUSH1 0x40 MLOAD RETURNDATASIZE PUSH1 0x1F NOT PUSH1 0x1F DUP3 ADD AND DUP3 ADD DUP1 PUSH1 0x40 MSTORE POP DUP2 ADD SWAP1 PUSH2 0x1563 SWAP2 SWAP1 PUSH2 0x1DE8 JUMP JUMPDEST POP POP POP POP JUMP JUMPDEST PUSH1 0x0 PUSH2 0x1575 DUP5 DUP5 PUSH2 0xF53 JUMP JUMPDEST SWAP1 POP PUSH32 0xFFFFFFFFFFFFFFFFFFFFFFFFFFFFFFFFFFFFFFFFFFFFFFFFFFFFFFFFFFFFFFFF DUP2 EQ PUSH2 0x15EF JUMPI DUP2 DUP2 LT ISZERO PUSH2 0x15E1 JUMPI PUSH1 0x40 MLOAD PUSH32 0x8C379A000000000000000000000000000000000000000000000000000000000 DUP2 MSTORE PUSH1 0x4 ADD PUSH2 0x15D8 SWAP1 PUSH2 0x2293 JUMP JUMPDEST PUSH1 0x40 MLOAD DUP1 SWAP2 SUB SWAP1 REVERT JUMPDEST PUSH2 0x15EE DUP5 DUP5 DUP5 DUP5 SUB PUSH2 0x1285 JUMP JUMPDEST JUMPDEST POP POP POP POP JUMP JUMPDEST PUSH1 0x0 PUSH20 0xFFFFFFFFFFFFFFFFFFFFFFFFFFFFFFFFFFFFFFFF AND DUP4 PUSH20 0xFFFFFFFFFFFFFFFFFFFFFFFFFFFFFFFFFFFFFFFF AND EQ ISZERO PUSH2 0x1665 JUMPI PUSH1 0x40 MLOAD PUSH32 0x8C379A000000000000000000000000000000000000000000000000000000000 DUP2 MSTORE PUSH1 0x4 ADD PUSH2 0x165C SWAP1 PUSH2 0x2313 JUMP JUMPDEST PUSH1 0x40 MLOAD DUP1 SWAP2 SUB SWAP1 REVERT JUMPDEST PUSH1 0x0 PUSH20 0xFFFFFFFFFFFFFFFFFFFFFFFFFFFFFFFFFFFFFFFF AND DUP3 PUSH20 0xFFFFFFFFFFFFFFFFFFFFFFFFFFFFFFFFFFFFFFFF AND EQ ISZERO PUSH2 0x16D5 JUMPI PUSH1 0x40 MLOAD PUSH32 0x8C379A000000000000000000000000000000000000000000000000000000000 DUP2 MSTORE PUSH1 0x4 ADD PUSH2 0x16CC SWAP1 PUSH2 0x2213 JUMP JUMPDEST PUSH1 0x40 MLOAD DUP1 SWAP2 SUB SWAP1 REVERT JUMPDEST PUSH2 0x16E0 DUP4 DUP4 DUP4 PUSH2 0x1C48 JUMP JUMPDEST PUSH1 0x0 DUP1 PUSH1 0x0 DUP6 PUSH20 0xFFFFFFFFFFFFFFFFFFFFFFFFFFFFFFFFFFFFFFFF AND PUSH20 0xFFFFFFFFFFFFFFFFFFFFFFFFFFFFFFFFFFFFFFFF AND DUP2 MSTORE PUSH1 0x20 ADD SWAP1 DUP2 MSTORE PUSH1 0x20 ADD PUSH1 0x0 KECCAK256 SLOAD SWAP1 POP DUP2 DUP2 LT ISZERO PUSH2 0x1766 JUMPI PUSH1 0x40 MLOAD PUSH32 0x8C379A000000000000000000000000000000000000000000000000000000000 DUP2 MSTORE PUSH1 0x4 ADD PUSH2 0x175D SWAP1 PUSH2 0x22B3 JUMP JUMPDEST PUSH1 0x40 MLOAD DUP1 SWAP2 SUB SWAP1 REVERT JUMPDEST DUP2 DUP2 SUB PUSH1 0x0 DUP1 DUP7 PUSH20 0xFFFFFFFFFFFFFFFFFFFFFFFFFFFFFFFFFFFFFFFF AND PUSH20 0xFFFFFFFFFFFFFFFFFFFFFFFFFFFFFFFFFFFFFFFF AND DUP2 MSTORE PUSH1 0x20 ADD SWAP1 DUP2 MSTORE PUSH1 0x20 ADD PUSH1 0x0 KECCAK256 DUP2 SWAP1 SSTORE POP DUP2 PUSH1 0x0 DUP1 DUP6 PUSH20 0xFFFFFFFFFFFFFFFFFFFFFFFFFFFFFFFFFFFFFFFF AND PUSH20 0xFFFFFFFFFFFFFFFFFFFFFFFFFFFFFFFFFFFFFFFF AND DUP2 MSTORE PUSH1 0x20 ADD SWAP1 DUP2 MSTORE PUSH1 0x20 ADD PUSH1 0x0 KECCAK256 PUSH1 0x0 DUP3 DUP3 SLOAD PUSH2 0x17F9 SWAP2 SWAP1 PUSH2 0x2437 JUMP JUMPDEST SWAP3 POP POP DUP2 SWAP1 SSTORE POP DUP3 PUSH20 0xFFFFFFFFFFFFFFFFFFFFFFFFFFFFFFFFFFFFFFFF AND DUP5 PUSH20 0xFFFFFFFFFFFFFFFFFFFFFFFFFFFFFFFFFFFFFFFF AND PUSH32 0xDDF252AD1BE2C89B69C2B068FC378DAA952BA7F163C4A11628F55A4DF523B3EF DUP5 PUSH1 0x40 MLOAD PUSH2 0x185D SWAP2 SWAP1 PUSH2 0x2393 JUMP JUMPDEST PUSH1 0x40 MLOAD DUP1 SWAP2 SUB SWAP1 LOG3 PUSH2 0x1870 DUP5 DUP5 DUP5 PUSH2 0x1C4D JUMP JUMPDEST POP POP POP POP JUMP JUMPDEST PUSH1 0x0 PUSH20 0xFFFFFFFFFFFFFFFFFFFFFFFFFFFFFFFFFFFFFFFF AND DUP3 PUSH20 0xFFFFFFFFFFFFFFFFFFFFFFFFFFFFFFFFFFFFFFFF AND EQ ISZERO PUSH2 0x18E6 JUMPI PUSH1 0x40 MLOAD PUSH32 0x8C379A000000000000000000000000000000000000000000000000000000000 DUP2 MSTORE PUSH1 0x4 ADD PUSH2 0x18DD SWAP1 PUSH2 0x2373 JUMP JUMPDEST PUSH1 0x40 MLOAD DUP1 SWAP2 SUB SWAP1 REVERT JUMPDEST PUSH2 0x18F2 PUSH1 0x0 DUP4 DUP4 PUSH2 0x1C48 JUMP JUMPDEST DUP1 PUSH1 0x2 PUSH1 0x0 DUP3 DUP3 SLOAD PUSH2 0x1904 SWAP2 SWAP1 PUSH2 0x2437 JUMP JUMPDEST SWAP3 POP POP DUP2 SWAP1 SSTORE POP DUP1 PUSH1 0x0 DUP1 DUP5 PUSH20 0xFFFFFFFFFFFFFFFFFFFFFFFFFFFFFFFFFFFFFFFF AND PUSH20 0xFFFFFFFFFFFFFFFFFFFFFFFFFFFFFFFFFFFFFFFF AND DUP2 MSTORE PUSH1 0x20 ADD SWAP1 DUP2 MSTORE PUSH1 0x20 ADD PUSH1 0x0 KECCAK256 PUSH1 0x0 DUP3 DUP3 SLOAD PUSH2 0x1959 SWAP2 SWAP1 PUSH2 0x2437 JUMP JUMPDEST SWAP3 POP POP DUP2 SWAP1 SSTORE POP DUP2 PUSH20 0xFFFFFFFFFFFFFFFFFFFFFFFFFFFFFFFFFFFFFFFF AND PUSH1 0x0 PUSH20 0xFFFFFFFFFFFFFFFFFFFFFFFFFFFFFFFFFFFFFFFF AND PUSH32 0xDDF252AD1BE2C89B69C2B068FC378DAA952BA7F163C4A11628F55A4DF523B3EF DUP4 PUSH1 0x40 MLOAD PUSH2 0x19BE SWAP2 SWAP1 PUSH2 0x2393 JUMP JUMPDEST PUSH1 0x40 MLOAD DUP1 SWAP2 SUB SWAP1 LOG3 PUSH2 0x19D2 PUSH1 0x0 DUP4 DUP4 PUSH2 0x1C4D JUMP JUMPDEST POP POP JUMP JUMPDEST PUSH1 0x0 DUP1 DUP4 GT DUP1 ISZERO PUSH2 0x19E7 JUMPI POP PUSH1 0x0 DUP3 GT JUMPDEST PUSH2 0x1A26 JUMPI PUSH1 0x40 MLOAD PUSH32 0x8C379A000000000000000000000000000000000000000000000000000000000 DUP2 MSTORE PUSH1 0x4 ADD PUSH2 0x1A1D SWAP1 PUSH2 0x2233 JUMP JUMPDEST PUSH1 0x40 MLOAD DUP1 SWAP2 SUB SWAP1 REVERT JUMPDEST PUSH1 0x0 PUSH2 0x3E5 DUP6 PUSH2 0x1A36 SWAP2 SWAP1 PUSH2 0x24BE JUMP JUMPDEST SWAP1 POP DUP1 PUSH2 0x3E8 DUP6 PUSH2 0x1A47 SWAP2 SWAP1 PUSH2 0x24BE JUMP JUMPDEST PUSH2 0x1A51 SWAP2 SWAP1 PUSH2 0x2437 JUMP JUMPDEST DUP4 DUP3 PUSH2 0x1A5D SWAP2 SWAP1 PUSH2 0x24BE JUMP JUMPDEST PUSH2 0x1A67 SWAP2 SWAP1 PUSH2 0x248D JUMP JUMPDEST SWAP2 POP POP SWAP4 SWAP3 POP POP POP JUMP JUMPDEST PUSH1 0x0 PUSH20 0xFFFFFFFFFFFFFFFFFFFFFFFFFFFFFFFFFFFFFFFF AND DUP3 PUSH20 0xFFFFFFFFFFFFFFFFFFFFFFFFFFFFFFFFFFFFFFFF AND EQ ISZERO PUSH2 0x1AE1 JUMPI PUSH1 0x40 MLOAD PUSH32 0x8C379A000000000000000000000000000000000000000000000000000000000 DUP2 MSTORE PUSH1 0x4 ADD PUSH2 0x1AD8 SWAP1 PUSH2 0x22F3 JUMP JUMPDEST PUSH1 0x40 MLOAD DUP1 SWAP2 SUB SWAP1 REVERT JUMPDEST PUSH2 0x1AED DUP3 PUSH1 0x0 DUP4 PUSH2 0x1C48 JUMP JUMPDEST PUSH1 0x0 DUP1 PUSH1 0x0 DUP5 PUSH20 0xFFFFFFFFFFFFFFFFFFFFFFFFFFFFFFFFFFFFFFFF AND PUSH20 0xFFFFFFFFFFFFFFFFFFFFFFFFFFFFFFFFFFFFFFFF AND DUP2 MSTORE PUSH1 0x20 ADD SWAP1 DUP2 MSTORE PUSH1 0x20 ADD PUSH1 0x0 KECCAK256 SLOAD SWAP1 POP DUP2 DUP2 LT ISZERO PUSH2 0x1B73 JUMPI PUSH1 0x40 MLOAD PUSH32 0x8C379A000000000000000000000000000000000000000000000000000000000 DUP2 MSTORE PUSH1 0x4 ADD PUSH2 0x1B6A SWAP1 PUSH2 0x2253 JUMP JUMPDEST PUSH1 0x40 MLOAD DUP1 SWAP2 SUB SWAP1 REVERT JUMPDEST DUP2 DUP2 SUB PUSH1 0x0 DUP1 DUP6 PUSH20 0xFFFFFFFFFFFFFFFFFFFFFFFFFFFFFFFFFFFFFFFF AND PUSH20 0xFFFFFFFFFFFFFFFFFFFFFFFFFFFFFFFFFFFFFFFF AND DUP2 MSTORE PUSH1 0x20 ADD SWAP1 DUP2 MSTORE PUSH1 0x20 ADD PUSH1 0x0 KECCAK256 DUP2 SWAP1 SSTORE POP DUP2 PUSH1 0x2 PUSH1 0x0 DUP3 DUP3 SLOAD PUSH2 0x1BCA SWAP2 SWAP1 PUSH2 0x2518 JUMP JUMPDEST SWAP3 POP POP DUP2 SWAP1 SSTORE POP PUSH1 0x0 PUSH20 0xFFFFFFFFFFFFFFFFFFFFFFFFFFFFFFFFFFFFFFFF AND DUP4 PUSH20 0xFFFFFFFFFFFFFFFFFFFFFFFFFFFFFFFFFFFFFFFF AND PUSH32 0xDDF252AD1BE2C89B69C2B068FC378DAA952BA7F163C4A11628F55A4DF523B3EF DUP5 PUSH1 0x40 MLOAD PUSH2 0x1C2F SWAP2 SWAP1 PUSH2 0x2393 JUMP JUMPDEST PUSH1 0x40 MLOAD DUP1 SWAP2 SUB SWAP1 LOG3 PUSH2 0x1C43 DUP4 PUSH1 0x0 DUP5 PUSH2 0x1C4D JUMP JUMPDEST POP POP POP JUMP JUMPDEST POP POP POP JUMP JUMPDEST POP POP POP JUMP JUMPDEST PUSH1 0x0 DUP2 CALLDATALOAD SWAP1 POP PUSH2 0x1C61 DUP2 PUSH2 0x29C5 JUMP JUMPDEST SWAP3 SWAP2 POP POP JUMP JUMPDEST PUSH1 0x0 DUP2 MLOAD SWAP1 POP PUSH2 0x1C76 DUP2 PUSH2 0x29C5 JUMP JUMPDEST SWAP3 SWAP2 POP POP JUMP JUMPDEST PUSH1 0x0 DUP2 MLOAD SWAP1 POP PUSH2 0x1C8B DUP2 PUSH2 0x29DC JUMP JUMPDEST SWAP3 SWAP2 POP POP JUMP JUMPDEST PUSH1 0x0 DUP2 CALLDATALOAD SWAP1 POP PUSH2 0x1CA0 DUP2 PUSH2 0x29F3 JUMP JUMPDEST SWAP3 SWAP2 POP POP JUMP JUMPDEST PUSH1 0x0 DUP2 MLOAD SWAP1 POP PUSH2 0x1CB5 DUP2 PUSH2 0x29F3 JUMP JUMPDEST SWAP3 SWAP2 POP POP JUMP JUMPDEST PUSH1 0x0 PUSH1 0x20 DUP3 DUP5 SUB SLT ISZERO PUSH2 0x1CD1 JUMPI PUSH2 0x1CD0 PUSH2 0x2693 JUMP JUMPDEST JUMPDEST PUSH1 0x0 PUSH2 0x1CDF DUP5 DUP3 DUP6 ADD PUSH2 0x1C52 JUMP JUMPDEST SWAP2 POP POP SWAP3 SWAP2 POP POP JUMP JUMPDEST PUSH1 0x0 PUSH1 0x20 DUP3 DUP5 SUB SLT ISZERO PUSH2 0x1CFE JUMPI PUSH2 0x1CFD PUSH2 0x2693 JUMP JUMPDEST JUMPDEST PUSH1 0x0 PUSH2 0x1D0C DUP5 DUP3 DUP6 ADD PUSH2 0x1C67 JUMP JUMPDEST SWAP2 POP POP SWAP3 SWAP2 POP POP JUMP JUMPDEST PUSH1 0x0 DUP1 PUSH1 0x40 DUP4 DUP6 SUB SLT ISZERO PUSH2 0x1D2C JUMPI PUSH2 0x1D2B PUSH2 0x2693 JUMP JUMPDEST JUMPDEST PUSH1 0x0 PUSH2 0x1D3A DUP6 DUP3 DUP7 ADD PUSH2 0x1C52 JUMP JUMPDEST SWAP3 POP POP PUSH1 0x20 PUSH2 0x1D4B DUP6 DUP3 DUP7 ADD PUSH2 0x1C52 JUMP JUMPDEST SWAP2 POP POP SWAP3 POP SWAP3 SWAP1 POP JUMP JUMPDEST PUSH1 0x0 DUP1 PUSH1 0x0 PUSH1 0x60 DUP5 DUP7 SUB SLT ISZERO PUSH2 0x1D6E JUMPI PUSH2 0x1D6D PUSH2 0x2693 JUMP JUMPDEST JUMPDEST PUSH1 0x0 PUSH2 0x1D7C DUP7 DUP3 DUP8 ADD PUSH2 0x1C52 JUMP JUMPDEST SWAP4 POP POP PUSH1 0x20 PUSH2 0x1D8D DUP7 DUP3 DUP8 ADD PUSH2 0x1C52 JUMP JUMPDEST SWAP3 POP POP PUSH1 0x40 PUSH2 0x1D9E DUP7 DUP3 DUP8 ADD PUSH2 0x1C91 JUMP JUMPDEST SWAP2 POP POP SWAP3 POP SWAP3 POP SWAP3 JUMP JUMPDEST PUSH1 0x0 DUP1 PUSH1 0x40 DUP4 DUP6 SUB SLT ISZERO PUSH2 0x1DBF JUMPI PUSH2 0x1DBE PUSH2 0x2693 JUMP JUMPDEST JUMPDEST PUSH1 0x0 PUSH2 0x1DCD DUP6 DUP3 DUP7 ADD PUSH2 0x1C52 JUMP JUMPDEST SWAP3 POP POP PUSH1 0x20 PUSH2 0x1DDE DUP6 DUP3 DUP7 ADD PUSH2 0x1C91 JUMP JUMPDEST SWAP2 POP POP SWAP3 POP SWAP3 SWAP1 POP JUMP JUMPDEST PUSH1 0x0 PUSH1 0x20 DUP3 DUP5 SUB SLT ISZERO PUSH2 0x1DFE JUMPI PUSH2 0x1DFD PUSH2 0x2693 JUMP JUMPDEST JUMPDEST PUSH1 0x0 PUSH2 0x1E0C DUP5 DUP3 DUP6 ADD PUSH2 0x1C7C JUMP JUMPDEST SWAP2 POP POP SWAP3 SWAP2 POP POP JUMP JUMPDEST PUSH1 0x0 PUSH1 0x20 DUP3 DUP5 SUB SLT ISZERO PUSH2 0x1E2B JUMPI PUSH2 0x1E2A PUSH2 0x2693 JUMP JUMPDEST JUMPDEST PUSH1 0x0 PUSH2 0x1E39 DUP5 DUP3 DUP6 ADD PUSH2 0x1C91 JUMP JUMPDEST SWAP2 POP POP SWAP3 SWAP2 POP POP JUMP JUMPDEST PUSH1 0x0 PUSH1 0x20 DUP3 DUP5 SUB SLT ISZERO PUSH2 0x1E58 JUMPI PUSH2 0x1E57 PUSH2 0x2693 JUMP JUMPDEST JUMPDEST PUSH1 0x0 PUSH2 0x1E66 DUP5 DUP3 DUP6 ADD PUSH2 0x1CA6 JUMP JUMPDEST SWAP2 POP POP SWAP3 SWAP2 POP POP JUMP JUMPDEST PUSH1 0x0 DUP1 PUSH1 0x40 DUP4 DUP6 SUB SLT ISZERO PUSH2 0x1E86 JUMPI PUSH2 0x1E85 PUSH2 0x2693 JUMP JUMPDEST JUMPDEST PUSH1 0x0 PUSH2 0x1E94 DUP6 DUP3 DUP7 ADD PUSH2 0x1C91 JUMP JUMPDEST SWAP3 POP POP PUSH1 0x20 PUSH2 0x1EA5 DUP6 DUP3 DUP7 ADD PUSH2 0x1C52 JUMP JUMPDEST SWAP2 POP POP SWAP3 POP SWAP3 SWAP1 POP JUMP JUMPDEST PUSH1 0x0 DUP1 PUSH1 0x40 DUP4 DUP6 SUB SLT ISZERO PUSH2 0x1EC6 JUMPI PUSH2 0x1EC5 PUSH2 0x2693 JUMP JUMPDEST JUMPDEST PUSH1 0x0 PUSH2 0x1ED4 DUP6 DUP3 DUP7 ADD PUSH2 0x1C91 JUMP JUMPDEST SWAP3 POP POP PUSH1 0x20 PUSH2 0x1EE5 DUP6 DUP3 DUP7 ADD PUSH2 0x1C91 JUMP JUMPDEST SWAP2 POP POP SWAP3 POP SWAP3 SWAP1 POP JUMP JUMPDEST PUSH1 0x0 DUP1 PUSH1 0x0 PUSH1 0x60 DUP5 DUP7 SUB SLT ISZERO PUSH2 0x1F08 JUMPI PUSH2 0x1F07 PUSH2 0x2693 JUMP JUMPDEST JUMPDEST PUSH1 0x0 PUSH2 0x1F16 DUP7 DUP3 DUP8 ADD PUSH2 0x1C91 JUMP JUMPDEST SWAP4 POP POP PUSH1 0x20 PUSH2 0x1F27 DUP7 DUP3 DUP8 ADD PUSH2 0x1C91 JUMP JUMPDEST SWAP3 POP POP PUSH1 0x40 PUSH2 0x1F38 DUP7 DUP3 DUP8 ADD PUSH2 0x1C52 JUMP JUMPDEST SWAP2 POP POP SWAP3 POP SWAP3 POP SWAP3 JUMP JUMPDEST PUSH2 0x1F4B DUP2 PUSH2 0x254C JUMP JUMPDEST DUP3 MSTORE POP POP JUMP JUMPDEST PUSH2 0x1F5A DUP2 PUSH2 0x255E JUMP JUMPDEST DUP3 MSTORE POP POP JUMP JUMPDEST PUSH1 0x0 PUSH2 0x1F6B DUP3 PUSH2 0x241B JUMP JUMPDEST PUSH2 0x1F75 DUP2 DUP6 PUSH2 0x2426 JUMP JUMPDEST SWAP4 POP PUSH2 0x1F85 DUP2 DUP6 PUSH1 0x20 DUP7 ADD PUSH2 0x25A1 JUMP JUMPDEST PUSH2 0x1F8E DUP2 PUSH2 0x2698 JUMP JUMPDEST DUP5 ADD SWAP2 POP POP SWAP3 SWAP2 POP POP JUMP JUMPDEST PUSH1 0x0 PUSH2 0x1FA6 PUSH1 0x23 DUP4 PUSH2 0x2426 JUMP JUMPDEST SWAP2 POP PUSH2 0x1FB1 DUP3 PUSH2 0x26A9 JUMP JUMPDEST PUSH1 0x40 DUP3 ADD SWAP1 POP SWAP2 SWAP1 POP JUMP JUMPDEST PUSH1 0x0 PUSH2 0x1FC9 PUSH1 0x2 DUP4 PUSH2 0x2426 JUMP JUMPDEST SWAP2 POP PUSH2 0x1FD4 DUP3 PUSH2 0x26F8 JUMP JUMPDEST PUSH1 0x20 DUP3 ADD SWAP1 POP SWAP2 SWAP1 POP JUMP JUMPDEST PUSH1 0x0 PUSH2 0x1FEC PUSH1 0x22 DUP4 PUSH2 0x2426 JUMP JUMPDEST SWAP2 POP PUSH2 0x1FF7 DUP3 PUSH2 0x2721 JUMP JUMPDEST PUSH1 0x40 DUP3 ADD SWAP1 POP SWAP2 SWAP1 POP JUMP JUMPDEST PUSH1 0x0 PUSH2 0x200F PUSH1 0x22 DUP4 PUSH2 0x2426 JUMP JUMPDEST SWAP2 POP PUSH2 0x201A DUP3 PUSH2 0x2770 JUMP JUMPDEST PUSH1 0x40 DUP3 ADD SWAP1 POP SWAP2 SWAP1 POP JUMP JUMPDEST PUSH1 0x0 PUSH2 0x2032 PUSH1 0x1D DUP4 PUSH2 0x2426 JUMP JUMPDEST SWAP2 POP PUSH2 0x203D DUP3 PUSH2 0x27BF JUMP JUMPDEST PUSH1 0x20 DUP3 ADD SWAP1 POP SWAP2 SWAP1 POP JUMP JUMPDEST PUSH1 0x0 PUSH2 0x2055 PUSH1 0x26 DUP4 PUSH2 0x2426 JUMP JUMPDEST SWAP2 POP PUSH2 0x2060 DUP3 PUSH2 0x27E8 JUMP JUMPDEST PUSH1 0x40 DUP3 ADD SWAP1 POP SWAP2 SWAP1 POP JUMP JUMPDEST PUSH1 0x0 PUSH2 0x2078 PUSH1 0x2 DUP4 PUSH2 0x2426 JUMP JUMPDEST SWAP2 POP PUSH2 0x2083 DUP3 PUSH2 0x2837 JUMP JUMPDEST PUSH1 0x20 DUP3 ADD SWAP1 POP SWAP2 SWAP1 POP JUMP JUMPDEST PUSH1 0x0 PUSH2 0x209B PUSH1 0x21 DUP4 PUSH2 0x2426 JUMP JUMPDEST SWAP2 POP PUSH2 0x20A6 DUP3 PUSH2 0x2860 JUMP JUMPDEST PUSH1 0x40 DUP3 ADD SWAP1 POP SWAP2 SWAP1 POP JUMP JUMPDEST PUSH1 0x0 PUSH2 0x20BE PUSH1 0x25 DUP4 PUSH2 0x2426 JUMP JUMPDEST SWAP2 POP PUSH2 0x20C9 DUP3 PUSH2 0x28AF JUMP JUMPDEST PUSH1 0x40 DUP3 ADD SWAP1 POP SWAP2 SWAP1 POP JUMP JUMPDEST PUSH1 0x0 PUSH2 0x20E1 PUSH1 0x24 DUP4 PUSH2 0x2426 JUMP JUMPDEST SWAP2 POP PUSH2 0x20EC DUP3 PUSH2 0x28FE JUMP JUMPDEST PUSH1 0x40 DUP3 ADD SWAP1 POP SWAP2 SWAP1 POP JUMP JUMPDEST PUSH1 0x0 PUSH2 0x2104 PUSH1 0x25 DUP4 PUSH2 0x2426 JUMP JUMPDEST SWAP2 POP PUSH2 0x210F DUP3 PUSH2 0x294D JUMP JUMPDEST PUSH1 0x40 DUP3 ADD SWAP1 POP SWAP2 SWAP1 POP JUMP JUMPDEST PUSH1 0x0 PUSH2 0x2127 PUSH1 0x1F DUP4 PUSH2 0x2426 JUMP JUMPDEST SWAP2 POP PUSH2 0x2132 DUP3 PUSH2 0x299C JUMP JUMPDEST PUSH1 0x20 DUP3 ADD SWAP1 POP SWAP2 SWAP1 POP JUMP JUMPDEST PUSH2 0x2146 DUP2 PUSH2 0x258A JUMP JUMPDEST DUP3 MSTORE POP POP JUMP JUMPDEST PUSH2 0x2155 DUP2 PUSH2 0x2594 JUMP JUMPDEST DUP3 MSTORE POP POP JUMP JUMPDEST PUSH1 0x0 PUSH1 0x20 DUP3 ADD SWAP1 POP PUSH2 0x2170 PUSH1 0x0 DUP4 ADD DUP5 PUSH2 0x1F42 JUMP JUMPDEST SWAP3 SWAP2 POP POP JUMP JUMPDEST PUSH1 0x0 PUSH1 0x60 DUP3 ADD SWAP1 POP PUSH2 0x218B PUSH1 0x0 DUP4 ADD DUP7 PUSH2 0x1F42 JUMP JUMPDEST PUSH2 0x2198 PUSH1 0x20 DUP4 ADD DUP6 PUSH2 0x1F42 JUMP JUMPDEST PUSH2 0x21A5 PUSH1 0x40 DUP4 ADD DUP5 PUSH2 0x213D JUMP JUMPDEST SWAP5 SWAP4 POP POP POP POP JUMP JUMPDEST PUSH1 0x0 PUSH1 0x40 DUP3 ADD SWAP1 POP PUSH2 0x21C2 PUSH1 0x0 DUP4 ADD DUP6 PUSH2 0x1F42 JUMP JUMPDEST PUSH2 0x21CF PUSH1 0x20 DUP4 ADD DUP5 PUSH2 0x213D JUMP JUMPDEST SWAP4 SWAP3 POP POP POP JUMP JUMPDEST PUSH1 0x0 PUSH1 0x20 DUP3 ADD SWAP1 POP PUSH2 0x21EB PUSH1 0x0 DUP4 ADD DUP5 PUSH2 0x1F51 JUMP JUMPDEST SWAP3 SWAP2 POP POP JUMP JUMPDEST PUSH1 0x0 PUSH1 0x20 DUP3 ADD SWAP1 POP DUP2 DUP2 SUB PUSH1 0x0 DUP4 ADD MSTORE PUSH2 0x220B DUP2 DUP5 PUSH2 0x1F60 JUMP JUMPDEST SWAP1 POP SWAP3 SWAP2 POP POP JUMP JUMPDEST PUSH1 0x0 PUSH1 0x20 DUP3 ADD SWAP1 POP DUP2 DUP2 SUB PUSH1 0x0 DUP4 ADD MSTORE PUSH2 0x222C DUP2 PUSH2 0x1F99 JUMP JUMPDEST SWAP1 POP SWAP2 SWAP1 POP JUMP JUMPDEST PUSH1 0x0 PUSH1 0x20 DUP3 ADD SWAP1 POP DUP2 DUP2 SUB PUSH1 0x0 DUP4 ADD MSTORE PUSH2 0x224C DUP2 PUSH2 0x1FBC JUMP JUMPDEST SWAP1 POP SWAP2 SWAP1 POP JUMP JUMPDEST PUSH1 0x0 PUSH1 0x20 DUP3 ADD SWAP1 POP DUP2 DUP2 SUB PUSH1 0x0 DUP4 ADD MSTORE PUSH2 0x226C DUP2 PUSH2 0x1FDF JUMP JUMPDEST SWAP1 POP SWAP2 SWAP1 POP JUMP JUMPDEST PUSH1 0x0 PUSH1 0x20 DUP3 ADD SWAP1 POP DUP2 DUP2 SUB PUSH1 0x0 DUP4 ADD MSTORE PUSH2 0x228C DUP2 PUSH2 0x2002 JUMP JUMPDEST SWAP1 POP SWAP2 SWAP1 POP JUMP JUMPDEST PUSH1 0x0 PUSH1 0x20 DUP3 ADD SWAP1 POP DUP2 DUP2 SUB PUSH1 0x0 DUP4 ADD MSTORE PUSH2 0x22AC DUP2 PUSH2 0x2025 JUMP JUMPDEST SWAP1 POP SWAP2 SWAP1 POP JUMP JUMPDEST PUSH1 0x0 PUSH1 0x20 DUP3 ADD SWAP1 POP DUP2 DUP2 SUB PUSH1 0x0 DUP4 ADD MSTORE PUSH2 0x22CC DUP2 PUSH2 0x2048 JUMP JUMPDEST SWAP1 POP SWAP2 SWAP1 POP JUMP JUMPDEST PUSH1 0x0 PUSH1 0x20 DUP3 ADD SWAP1 POP DUP2 DUP2 SUB PUSH1 0x0 DUP4 ADD MSTORE PUSH2 0x22EC DUP2 PUSH2 0x206B JUMP JUMPDEST SWAP1 POP SWAP2 SWAP1 POP JUMP JUMPDEST PUSH1 0x0 PUSH1 0x20 DUP3 ADD SWAP1 POP DUP2 DUP2 SUB PUSH1 0x0 DUP4 ADD MSTORE PUSH2 0x230C DUP2 PUSH2 0x208E JUMP JUMPDEST SWAP1 POP SWAP2 SWAP1 POP JUMP JUMPDEST PUSH1 0x0 PUSH1 0x20 DUP3 ADD SWAP1 POP DUP2 DUP2 SUB PUSH1 0x0 DUP4 ADD MSTORE PUSH2 0x232C DUP2 PUSH2 0x20B1 JUMP JUMPDEST SWAP1 POP SWAP2 SWAP1 POP JUMP JUMPDEST PUSH1 0x0 PUSH1 0x20 DUP3 ADD SWAP1 POP DUP2 DUP2 SUB PUSH1 0x0 DUP4 ADD MSTORE PUSH2 0x234C DUP2 PUSH2 0x20D4 JUMP JUMPDEST SWAP1 POP SWAP2 SWAP1 POP JUMP JUMPDEST PUSH1 0x0 PUSH1 0x20 DUP3 ADD SWAP1 POP DUP2 DUP2 SUB PUSH1 0x0 DUP4 ADD MSTORE PUSH2 0x236C DUP2 PUSH2 0x20F7 JUMP JUMPDEST SWAP1 POP SWAP2 SWAP1 POP JUMP JUMPDEST PUSH1 0x0 PUSH1 0x20 DUP3 ADD SWAP1 POP DUP2 DUP2 SUB PUSH1 0x0 DUP4 ADD MSTORE PUSH2 0x238C DUP2 PUSH2 0x211A JUMP JUMPDEST SWAP1 POP SWAP2 SWAP1 POP JUMP JUMPDEST PUSH1 0x0 PUSH1 0x20 DUP3 ADD SWAP1 POP PUSH2 0x23A8 PUSH1 0x0 DUP4 ADD DUP5 PUSH2 0x213D JUMP JUMPDEST SWAP3 SWAP2 POP POP JUMP JUMPDEST PUSH1 0x0 PUSH1 0x40 DUP3 ADD SWAP1 POP PUSH2 0x23C3 PUSH1 0x0 DUP4 ADD DUP6 PUSH2 0x213D JUMP JUMPDEST PUSH2 0x23D0 PUSH1 0x20 DUP4 ADD DUP5 PUSH2 0x1F42 JUMP JUMPDEST SWAP4 SWAP3 POP POP POP JUMP JUMPDEST PUSH1 0x0 PUSH1 0x40 DUP3 ADD SWAP1 POP PUSH2 0x23EC PUSH1 0x0 DUP4 ADD DUP6 PUSH2 0x213D JUMP JUMPDEST PUSH2 0x23F9 PUSH1 0x20 DUP4 ADD DUP5 PUSH2 0x213D JUMP JUMPDEST SWAP4 SWAP3 POP POP POP JUMP JUMPDEST PUSH1 0x0 PUSH1 0x20 DUP3 ADD SWAP1 POP PUSH2 0x2415 PUSH1 0x0 DUP4 ADD DUP5 PUSH2 0x214C JUMP JUMPDEST SWAP3 SWAP2 POP POP JUMP JUMPDEST PUSH1 0x0 DUP2 MLOAD SWAP1 POP SWAP2 SWAP1 POP JUMP JUMPDEST PUSH1 0x0 DUP3 DUP3 MSTORE PUSH1 0x20 DUP3 ADD SWAP1 POP SWAP3 SWAP2 POP POP JUMP JUMPDEST PUSH1 0x0 PUSH2 0x2442 DUP3 PUSH2 0x258A JUMP JUMPDEST SWAP2 POP PUSH2 0x244D DUP4 PUSH2 0x258A JUMP JUMPDEST SWAP3 POP DUP3 PUSH32 0xFFFFFFFFFFFFFFFFFFFFFFFFFFFFFFFFFFFFFFFFFFFFFFFFFFFFFFFFFFFFFFFF SUB DUP3 GT ISZERO PUSH2 0x2482 JUMPI PUSH2 0x2481 PUSH2 0x2606 JUMP JUMPDEST JUMPDEST DUP3 DUP3 ADD SWAP1 POP SWAP3 SWAP2 POP POP JUMP JUMPDEST PUSH1 0x0 PUSH2 0x2498 DUP3 PUSH2 0x258A JUMP JUMPDEST SWAP2 POP PUSH2 0x24A3 DUP4 PUSH2 0x258A JUMP JUMPDEST SWAP3 POP DUP3 PUSH2 0x24B3 JUMPI PUSH2 0x24B2 PUSH2 0x2635 JUMP JUMPDEST JUMPDEST DUP3 DUP3 DIV SWAP1 POP SWAP3 SWAP2 POP POP JUMP JUMPDEST PUSH1 0x0 PUSH2 0x24C9 DUP3 PUSH2 0x258A JUMP JUMPDEST SWAP2 POP PUSH2 0x24D4 DUP4 PUSH2 0x258A JUMP JUMPDEST SWAP3 POP DUP2 PUSH32 0xFFFFFFFFFFFFFFFFFFFFFFFFFFFFFFFFFFFFFFFFFFFFFFFFFFFFFFFFFFFFFFFF DIV DUP4 GT DUP3 ISZERO ISZERO AND ISZERO PUSH2 0x250D JUMPI PUSH2 0x250C PUSH2 0x2606 JUMP JUMPDEST JUMPDEST DUP3 DUP3 MUL SWAP1 POP SWAP3 SWAP2 POP POP JUMP JUMPDEST PUSH1 0x0 PUSH2 0x2523 DUP3 PUSH2 0x258A JUMP JUMPDEST SWAP2 POP PUSH2 0x252E DUP4 PUSH2 0x258A JUMP JUMPDEST SWAP3 POP DUP3 DUP3 LT ISZERO PUSH2 0x2541 JUMPI PUSH2 0x2540 PUSH2 0x2606 JUMP JUMPDEST JUMPDEST DUP3 DUP3 SUB SWAP1 POP SWAP3 SWAP2 POP POP JUMP JUMPDEST PUSH1 0x0 PUSH2 0x2557 DUP3 PUSH2 0x256A JUMP JUMPDEST SWAP1 POP SWAP2 SWAP1 POP JUMP JUMPDEST PUSH1 0x0 DUP2 ISZERO ISZERO SWAP1 POP SWAP2 SWAP1 POP JUMP JUMPDEST PUSH1 0x0 PUSH20 0xFFFFFFFFFFFFFFFFFFFFFFFFFFFFFFFFFFFFFFFF DUP3 AND SWAP1 POP SWAP2 SWAP1 POP JUMP JUMPDEST PUSH1 0x0 DUP2 SWAP1 POP SWAP2 SWAP1 POP JUMP JUMPDEST PUSH1 0x0 PUSH1 0xFF DUP3 AND SWAP1 POP SWAP2 SWAP1 POP JUMP JUMPDEST PUSH1 0x0 JUMPDEST DUP4 DUP2 LT ISZERO PUSH2 0x25BF JUMPI DUP1 DUP3 ADD MLOAD DUP2 DUP5 ADD MSTORE PUSH1 0x20 DUP2 ADD SWAP1 POP PUSH2 0x25A4 JUMP JUMPDEST DUP4 DUP2 GT ISZERO PUSH2 0x25CE JUMPI PUSH1 0x0 DUP5 DUP5 ADD MSTORE JUMPDEST POP POP POP POP JUMP JUMPDEST PUSH1 0x0 PUSH1 0x2 DUP3 DIV SWAP1 POP PUSH1 0x1 DUP3 AND DUP1 PUSH2 0x25EC JUMPI PUSH1 0x7F DUP3 AND SWAP2 POP JUMPDEST PUSH1 0x20 DUP3 LT DUP2 EQ ISZERO PUSH2 0x2600 JUMPI PUSH2 0x25FF PUSH2 0x2664 JUMP JUMPDEST JUMPDEST POP SWAP2 SWAP1 POP JUMP JUMPDEST PUSH32 0x4E487B7100000000000000000000000000000000000000000000000000000000 PUSH1 0x0 MSTORE PUSH1 0x11 PUSH1 0x4 MSTORE PUSH1 0x24 PUSH1 0x0 REVERT JUMPDEST PUSH32 0x4E487B7100000000000000000000000000000000000000000000000000000000 PUSH1 0x0 MSTORE PUSH1 0x12 PUSH1 0x4 MSTORE PUSH1 0x24 PUSH1 0x0 REVERT JUMPDEST PUSH32 0x4E487B7100000000000000000000000000000000000000000000000000000000 PUSH1 0x0 MSTORE PUSH1 0x22 PUSH1 0x4 MSTORE PUSH1 0x24 PUSH1 0x0 REVERT JUMPDEST PUSH1 0x0 DUP1 REVERT JUMPDEST PUSH1 0x0 PUSH1 0x1F NOT PUSH1 0x1F DUP4 ADD AND SWAP1 POP SWAP2 SWAP1 POP JUMP JUMPDEST PUSH32 0x45524332303A207472616E7366657220746F20746865207A65726F2061646472 PUSH1 0x0 DUP3 ADD MSTORE PUSH32 0x6573730000000000000000000000000000000000000000000000000000000000 PUSH1 0x20 DUP3 ADD MSTORE POP JUMP JUMPDEST PUSH32 0x4532000000000000000000000000000000000000000000000000000000000000 PUSH1 0x0 DUP3 ADD MSTORE POP JUMP JUMPDEST PUSH32 0x45524332303A206275726E20616D6F756E7420657863656564732062616C616E PUSH1 0x0 DUP3 ADD MSTORE PUSH32 0x6365000000000000000000000000000000000000000000000000000000000000 PUSH1 0x20 DUP3 ADD MSTORE POP JUMP JUMPDEST PUSH32 0x45524332303A20617070726F766520746F20746865207A65726F206164647265 PUSH1 0x0 DUP3 ADD MSTORE PUSH32 0x7373000000000000000000000000000000000000000000000000000000000000 PUSH1 0x20 DUP3 ADD MSTORE POP JUMP JUMPDEST PUSH32 0x45524332303A20696E73756666696369656E7420616C6C6F77616E6365000000 PUSH1 0x0 DUP3 ADD MSTORE POP JUMP JUMPDEST PUSH32 0x45524332303A207472616E7366657220616D6F756E7420657863656564732062 PUSH1 0x0 DUP3 ADD MSTORE PUSH32 0x616C616E63650000000000000000000000000000000000000000000000000000 PUSH1 0x20 DUP3 ADD MSTORE POP JUMP JUMPDEST PUSH32 0x4531000000000000000000000000000000000000000000000000000000000000 PUSH1 0x0 DUP3 ADD MSTORE POP JUMP JUMPDEST PUSH32 0x45524332303A206275726E2066726F6D20746865207A65726F20616464726573 PUSH1 0x0 DUP3 ADD MSTORE PUSH32 0x7300000000000000000000000000000000000000000000000000000000000000 PUSH1 0x20 DUP3 ADD MSTORE POP JUMP JUMPDEST PUSH32 0x45524332303A207472616E736665722066726F6D20746865207A65726F206164 PUSH1 0x0 DUP3 ADD MSTORE PUSH32 0x6472657373000000000000000000000000000000000000000000000000000000 PUSH1 0x20 DUP3 ADD MSTORE POP JUMP JUMPDEST PUSH32 0x45524332303A20617070726F76652066726F6D20746865207A65726F20616464 PUSH1 0x0 DUP3 ADD MSTORE PUSH32 0x7265737300000000000000000000000000000000000000000000000000000000 PUSH1 0x20 DUP3 ADD MSTORE POP JUMP JUMPDEST PUSH32 0x45524332303A2064656372656173656420616C6C6F77616E63652062656C6F77 PUSH1 0x0 DUP3 ADD MSTORE PUSH32 0x207A65726F000000000000000000000000000000000000000000000000000000 PUSH1 0x20 DUP3 ADD MSTORE POP JUMP JUMPDEST PUSH32 0x45524332303A206D696E7420746F20746865207A65726F206164647265737300 PUSH1 0x0 DUP3 ADD MSTORE POP JUMP JUMPDEST PUSH2 0x29CE DUP2 PUSH2 0x254C JUMP JUMPDEST DUP2 EQ PUSH2 0x29D9 JUMPI PUSH1 0x0 DUP1 REVERT JUMPDEST POP JUMP JUMPDEST PUSH2 0x29E5 DUP2 PUSH2 0x255E JUMP JUMPDEST DUP2 EQ PUSH2 0x29F0 JUMPI PUSH1 0x0 DUP1 REVERT JUMPDEST POP JUMP JUMPDEST PUSH2 0x29FC DUP2 PUSH2 0x258A JUMP JUMPDEST DUP2 EQ PUSH2 0x2A07 JUMPI PUSH1 0x0 DUP1 REVERT JUMPDEST POP JUMP INVALID LOG2 PUSH5 0x6970667358 0x22 SLT KECCAK256 PUSH22 0x1BE49E9B1D5AC69CAC3B290DE0E5DCCDA9ED4BF74C05 BASEFEE PUSH15 0xE1DAFF4C7482B364736F6C63430008 SMOD STOP CALLER "
		},
		"gasEstimates": {
			"creation": {
				"codeDepositCost": "2163200",
				"executionCost": "infinite",
				"totalCost": "infinite"
			},
			"external": {
				"addLiquidity(uint256)": "infinite",
				"allowance(address,address)": "infinite",
				"approve(address,uint256)": "infinite",
				"balanceOf(address)": "2974",
				"decimals()": "388",
				"decreaseAllowance(address,uint256)": "infinite",
				"factoryAddress()": "2603",
				"getReserve()": "infinite",
				"getTokenAmount(uint256)": "infinite",
				"getUnitPrice()": "363",
				"getWeiAmount(uint256)": "infinite",
				"increaseAllowance(address,uint256)": "infinite",
				"name()": "infinite",
				"removeLiquidity(uint256)": "infinite",
				"symbol()": "infinite",
				"tokenAddress()": "2647",
				"tokenToTokenSwap(uint256,uint256,address)": "infinite",
				"tokenToWeiSwap(uint256,uint256)": "infinite",
				"totalSupply()": "2527",
				"transfer(address,uint256)": "infinite",
				"transferFrom(address,address,uint256)": "infinite",
				"weiToTokenSwap(uint256)": "infinite",
				"weiToTokenTransfer(uint256,address)": "infinite"
			},
			"internal": {
				"getAmount(uint256,uint256,uint256)": "infinite",
				"weiToToken(uint256,address)": "infinite"
			}
		},
		"methodIdentifiers": {
			"addLiquidity(uint256)": "51c6590a",
			"allowance(address,address)": "dd62ed3e",
			"approve(address,uint256)": "095ea7b3",
			"balanceOf(address)": "70a08231",
			"decimals()": "313ce567",
			"decreaseAllowance(address,uint256)": "a457c2d7",
			"factoryAddress()": "966dae0e",
			"getReserve()": "59bf5d39",
			"getTokenAmount(uint256)": "c2507ac1",
			"getUnitPrice()": "012a33aa",
			"getWeiAmount(uint256)": "82d5d7ac",
			"increaseAllowance(address,uint256)": "39509351",
			"name()": "06fdde03",
			"removeLiquidity(uint256)": "9c8f9f23",
			"symbol()": "95d89b41",
			"tokenAddress()": "9d76ea58",
			"tokenToTokenSwap(uint256,uint256,address)": "f7a7e324",
			"tokenToWeiSwap(uint256,uint256)": "87276826",
			"totalSupply()": "18160ddd",
			"transfer(address,uint256)": "a9059cbb",
			"transferFrom(address,address,uint256)": "23b872dd",
			"weiToTokenSwap(uint256)": "fede4ba4",
			"weiToTokenTransfer(uint256,address)": "237e22d0"
		}
	},
	"abi": [
		{
			"inputs": [
				{
					"internalType": "address",
					"name": "_token",
					"type": "address"
				}
			],
			"stateMutability": "nonpayable",
			"type": "constructor"
		},
		{
			"anonymous": false,
			"inputs": [
				{
					"indexed": true,
					"internalType": "address",
					"name": "owner",
					"type": "address"
				},
				{
					"indexed": true,
					"internalType": "address",
					"name": "spender",
					"type": "address"
				},
				{
					"indexed": false,
					"internalType": "uint256",
					"name": "value",
					"type": "uint256"
				}
			],
			"name": "Approval",
			"type": "event"
		},
		{
			"anonymous": false,
			"inputs": [
				{
					"indexed": true,
					"internalType": "address",
					"name": "from",
					"type": "address"
				},
				{
					"indexed": true,
					"internalType": "address",
					"name": "to",
					"type": "address"
				},
				{
					"indexed": false,
					"internalType": "uint256",
					"name": "value",
					"type": "uint256"
				}
			],
			"name": "Transfer",
			"type": "event"
		},
		{
			"inputs": [
				{
					"internalType": "uint256",
					"name": "_tokenAmount",
					"type": "uint256"
				}
			],
			"name": "addLiquidity",
			"outputs": [
				{
					"internalType": "uint256",
					"name": "",
					"type": "uint256"
				}
			],
			"stateMutability": "payable",
			"type": "function"
		},
		{
			"inputs": [
				{
					"internalType": "address",
					"name": "owner",
					"type": "address"
				},
				{
					"internalType": "address",
					"name": "spender",
					"type": "address"
				}
			],
			"name": "allowance",
			"outputs": [
				{
					"internalType": "uint256",
					"name": "",
					"type": "uint256"
				}
			],
			"stateMutability": "view",
			"type": "function"
		},
		{
			"inputs": [
				{
					"internalType": "address",
					"name": "spender",
					"type": "address"
				},
				{
					"internalType": "uint256",
					"name": "amount",
					"type": "uint256"
				}
			],
			"name": "approve",
			"outputs": [
				{
					"internalType": "bool",
					"name": "",
					"type": "bool"
				}
			],
			"stateMutability": "nonpayable",
			"type": "function"
		},
		{
			"inputs": [
				{
					"internalType": "address",
					"name": "account",
					"type": "address"
				}
			],
			"name": "balanceOf",
			"outputs": [
				{
					"internalType": "uint256",
					"name": "",
					"type": "uint256"
				}
			],
			"stateMutability": "view",
			"type": "function"
		},
		{
			"inputs": [],
			"name": "decimals",
			"outputs": [
				{
					"internalType": "uint8",
					"name": "",
					"type": "uint8"
				}
			],
			"stateMutability": "view",
			"type": "function"
		},
		{
			"inputs": [
				{
					"internalType": "address",
					"name": "spender",
					"type": "address"
				},
				{
					"internalType": "uint256",
					"name": "subtractedValue",
					"type": "uint256"
				}
			],
			"name": "decreaseAllowance",
			"outputs": [
				{
					"internalType": "bool",
					"name": "",
					"type": "bool"
				}
			],
			"stateMutability": "nonpayable",
			"type": "function"
		},
		{
			"inputs": [],
			"name": "factoryAddress",
			"outputs": [
				{
					"internalType": "address",
					"name": "",
					"type": "address"
				}
			],
			"stateMutability": "view",
			"type": "function"
		},
		{
			"inputs": [],
			"name": "getReserve",
			"outputs": [
				{
					"internalType": "uint256",
					"name": "",
					"type": "uint256"
				}
			],
			"stateMutability": "view",
			"type": "function"
		},
		{
			"inputs": [
				{
					"internalType": "uint256",
					"name": "_weiAmount",
					"type": "uint256"
				}
			],
			"name": "getTokenAmount",
			"outputs": [
				{
					"internalType": "uint256",
					"name": "",
					"type": "uint256"
				}
			],
			"stateMutability": "view",
			"type": "function"
		},
		{
			"inputs": [],
			"name": "getUnitPrice",
			"outputs": [
				{
					"internalType": "uint256",
					"name": "",
					"type": "uint256"
				}
			],
			"stateMutability": "view",
			"type": "function"
		},
		{
			"inputs": [
				{
					"internalType": "uint256",
					"name": "_tokenAmount",
					"type": "uint256"
				}
			],
			"name": "getWeiAmount",
			"outputs": [
				{
					"internalType": "uint256",
					"name": "",
					"type": "uint256"
				}
			],
			"stateMutability": "view",
			"type": "function"
		},
		{
			"inputs": [
				{
					"internalType": "address",
					"name": "spender",
					"type": "address"
				},
				{
					"internalType": "uint256",
					"name": "addedValue",
					"type": "uint256"
				}
			],
			"name": "increaseAllowance",
			"outputs": [
				{
					"internalType": "bool",
					"name": "",
					"type": "bool"
				}
			],
			"stateMutability": "nonpayable",
			"type": "function"
		},
		{
			"inputs": [],
			"name": "name",
			"outputs": [
				{
					"internalType": "string",
					"name": "",
					"type": "string"
				}
			],
			"stateMutability": "view",
			"type": "function"
		},
		{
			"inputs": [
				{
					"internalType": "uint256",
					"name": "_amount",
					"type": "uint256"
				}
			],
			"name": "removeLiquidity",
			"outputs": [
				{
					"internalType": "uint256",
					"name": "",
					"type": "uint256"
				},
				{
					"internalType": "uint256",
					"name": "",
					"type": "uint256"
				}
			],
			"stateMutability": "nonpayable",
			"type": "function"
		},
		{
			"inputs": [],
			"name": "symbol",
			"outputs": [
				{
					"internalType": "string",
					"name": "",
					"type": "string"
				}
			],
			"stateMutability": "view",
			"type": "function"
		},
		{
			"inputs": [],
			"name": "tokenAddress",
			"outputs": [
				{
					"internalType": "address",
					"name": "",
					"type": "address"
				}
			],
			"stateMutability": "view",
			"type": "function"
		},
		{
			"inputs": [
				{
					"internalType": "uint256",
					"name": "_tokensSold",
					"type": "uint256"
				},
				{
					"internalType": "uint256",
					"name": "_tokensBought",
					"type": "uint256"
				},
				{
					"internalType": "address",
					"name": "_tokenAddress",
					"type": "address"
				}
			],
			"name": "tokenToTokenSwap",
			"outputs": [],
			"stateMutability": "nonpayable",
			"type": "function"
		},
		{
			"inputs": [
				{
					"internalType": "uint256",
					"name": "_tokensAmount",
					"type": "uint256"
				},
				{
					"internalType": "uint256",
					"name": "_weiRequested",
					"type": "uint256"
				}
			],
			"name": "tokenToWeiSwap",
			"outputs": [],
			"stateMutability": "payable",
			"type": "function"
		},
		{
			"inputs": [],
			"name": "totalSupply",
			"outputs": [
				{
					"internalType": "uint256",
					"name": "",
					"type": "uint256"
				}
			],
			"stateMutability": "view",
			"type": "function"
		},
		{
			"inputs": [
				{
					"internalType": "address",
					"name": "to",
					"type": "address"
				},
				{
					"internalType": "uint256",
					"name": "amount",
					"type": "uint256"
				}
			],
			"name": "transfer",
			"outputs": [
				{
					"internalType": "bool",
					"name": "",
					"type": "bool"
				}
			],
			"stateMutability": "nonpayable",
			"type": "function"
		},
		{
			"inputs": [
				{
					"internalType": "address",
					"name": "from",
					"type": "address"
				},
				{
					"internalType": "address",
					"name": "to",
					"type": "address"
				},
				{
					"internalType": "uint256",
					"name": "amount",
					"type": "uint256"
				}
			],
			"name": "transferFrom",
			"outputs": [
				{
					"internalType": "bool",
					"name": "",
					"type": "bool"
				}
			],
			"stateMutability": "nonpayable",
			"type": "function"
		},
		{
			"inputs": [
				{
					"internalType": "uint256",
					"name": "_tokensRequested",
					"type": "uint256"
				}
			],
			"name": "weiToTokenSwap",
			"outputs": [],
			"stateMutability": "payable",
			"type": "function"
		},
		{
			"inputs": [
				{
					"internalType": "uint256",
					"name": "_tokensRequested",
					"type": "uint256"
				},
				{
					"internalType": "address",
					"name": "_recipient",
					"type": "address"
				}
			],
			"name": "weiToTokenTransfer",
			"outputs": [],
			"stateMutability": "payable",
			"type": "function"
		}
	]
}